{
  "contractName": "RegistrationAndCertificateContractFactory",
  "abi": [
    {
      "constant": true,
      "inputs": [
        {
          "name": "_studentAddress",
          "type": "address"
        }
      ],
      "name": "getFirstCollege",
      "outputs": [
        {
          "name": "",
          "type": "address"
        }
      ],
      "payable": false,
      "stateMutability": "view",
      "type": "function",
      "signature": "0x9e5c196c"
    },
    {
      "constant": true,
      "inputs": [],
      "name": "getFirstStudent",
      "outputs": [
        {
          "name": "",
          "type": "address"
        }
      ],
      "payable": false,
      "stateMutability": "view",
      "type": "function",
      "signature": "0xacbe8cee"
    },
    {
      "constant": true,
      "inputs": [],
      "name": "cRegistrationContract",
      "outputs": [
        {
          "name": "",
          "type": "address"
        }
      ],
      "payable": false,
      "stateMutability": "view",
      "type": "function",
      "signature": "0xed2483aa"
    },
    {
      "constant": true,
      "inputs": [],
      "name": "sCertificationContract",
      "outputs": [
        {
          "name": "",
          "type": "address"
        }
      ],
      "payable": false,
      "stateMutability": "view",
      "type": "function",
      "signature": "0x9776fb4c"
    },
    {
      "constant": true,
      "inputs": [],
      "name": "cCertificationContract",
      "outputs": [
        {
          "name": "",
          "type": "address"
        }
      ],
      "payable": false,
      "stateMutability": "view",
      "type": "function",
      "signature": "0xa3025078"
    },
    {
      "constant": true,
      "inputs": [],
      "name": "getStudentData",
      "outputs": [
        {
          "name": "",
          "type": "string"
        },
        {
          "name": "",
          "type": "uint256"
        },
        {
          "name": "",
          "type": "string"
        }
      ],
      "payable": false,
      "stateMutability": "view",
      "type": "function",
      "signature": "0x5fd7b16a"
    },
    {
      "constant": true,
      "inputs": [],
      "name": "getCollegeData",
      "outputs": [
        {
          "name": "",
          "type": "string"
        },
        {
          "name": "",
          "type": "string"
        },
        {
          "name": "",
          "type": "string"
        }
      ],
      "payable": false,
      "stateMutability": "view",
      "type": "function",
      "signature": "0xe37bdb00"
    },
    {
      "constant": true,
      "inputs": [
        {
          "name": "_regContractAddress",
          "type": "address"
        }
      ],
      "name": "regStuCollAddress",
      "outputs": [
        {
          "name": "",
          "type": "address"
        },
        {
          "name": "",
          "type": "address"
        }
      ],
      "payable": false,
      "stateMutability": "view",
      "type": "function",
      "signature": "0xc79a9745"
    },
    {
      "constant": true,
      "inputs": [
        {
          "name": "_certContractAddress",
          "type": "address"
        }
      ],
      "name": "certStuCollAddress",
      "outputs": [
        {
          "name": "",
          "type": "address"
        },
        {
          "name": "",
          "type": "address"
        }
      ],
      "payable": false,
      "stateMutability": "view",
      "type": "function",
      "signature": "0x2df89cd3"
    },
    {
      "constant": false,
      "inputs": [
        {
          "name": "name",
          "type": "string"
        },
        {
          "name": "phoneNumber",
          "type": "uint256"
        },
        {
          "name": "emailId",
          "type": "string"
        }
      ],
      "name": "createStudent",
      "outputs": [],
      "payable": false,
      "stateMutability": "nonpayable",
      "type": "function",
      "signature": "0xc12b577b"
    },
    {
      "constant": false,
      "inputs": [
        {
          "name": "instituteName",
          "type": "string"
        },
        {
          "name": "instituteCode",
          "type": "string"
        },
        {
          "name": "instituteAISHECode",
          "type": "string"
        }
      ],
      "name": "createCollege",
      "outputs": [],
      "payable": false,
      "stateMutability": "nonpayable",
      "type": "function",
      "signature": "0x85870a6f"
    },
    {
      "constant": false,
      "inputs": [
        {
          "name": "collegeAddress",
          "type": "address"
        },
        {
          "name": "collegeRegNumber",
          "type": "string"
        },
        {
          "name": "collegeEmailId",
          "type": "string"
        },
        {
          "name": "collegeDoJ",
          "type": "uint256"
        },
        {
          "name": "collegeDateOfPassing",
          "type": "uint256"
        }
      ],
      "name": "startRegistration",
      "outputs": [],
      "payable": false,
      "stateMutability": "nonpayable",
      "type": "function",
      "signature": "0xb7c2d050"
    },
    {
      "constant": false,
      "inputs": [
        {
          "name": "studentAddress",
          "type": "address"
        }
      ],
      "name": "verifyStudentProfile",
      "outputs": [],
      "payable": false,
      "stateMutability": "nonpayable",
      "type": "function",
      "signature": "0x18014d15"
    },
    {
      "constant": false,
      "inputs": [
        {
          "name": "studentAddress",
          "type": "address"
        }
      ],
      "name": "approveRegistration",
      "outputs": [],
      "payable": false,
      "stateMutability": "nonpayable",
      "type": "function",
      "signature": "0x5179fc49"
    },
    {
      "constant": false,
      "inputs": [
        {
          "name": "collegeAddress",
          "type": "address"
        }
      ],
      "name": "acceptRegistration",
      "outputs": [],
      "payable": false,
      "stateMutability": "nonpayable",
      "type": "function",
      "signature": "0xb204e9f3"
    },
    {
      "constant": true,
      "inputs": [
        {
          "name": "studentAddress",
          "type": "address"
        },
        {
          "name": "collegeAddress",
          "type": "address"
        }
      ],
      "name": "getRegistrationStatus",
      "outputs": [
        {
          "name": "",
          "type": "string"
        }
      ],
      "payable": false,
      "stateMutability": "view",
      "type": "function",
      "signature": "0x95d3113a"
    },
    {
      "constant": true,
      "inputs": [
        {
          "name": "studentAddress",
          "type": "address"
        },
        {
          "name": "collegeAddress",
          "type": "address"
        }
      ],
      "name": "getCertificationStatus",
      "outputs": [
        {
          "name": "",
          "type": "string"
        }
      ],
      "payable": false,
      "stateMutability": "view",
      "type": "function",
      "signature": "0x92f0a140"
    },
    {
      "constant": false,
      "inputs": [
        {
          "name": "_collegeAddress",
          "type": "address"
        }
      ],
      "name": "startCertification",
      "outputs": [],
      "payable": false,
      "stateMutability": "nonpayable",
      "type": "function",
      "signature": "0x79554453"
    },
    {
      "constant": false,
      "inputs": [
        {
          "name": "_collegeAddress",
          "type": "address"
        }
      ],
      "name": "reqCertification",
      "outputs": [],
      "payable": false,
      "stateMutability": "nonpayable",
      "type": "function",
      "signature": "0xb08ab8ea"
    },
    {
      "constant": false,
      "inputs": [
        {
          "name": "_studentAddress",
          "type": "address"
        }
      ],
      "name": "issueCertification",
      "outputs": [],
      "payable": false,
      "stateMutability": "nonpayable",
      "type": "function",
      "signature": "0xa2ddb37c"
    },
    {
      "constant": false,
      "inputs": [
        {
          "name": "_studentAddress",
          "type": "address"
        },
        {
          "name": "_certid",
          "type": "uint256"
        },
        {
          "name": "_certContent",
          "type": "string"
        }
      ],
      "name": "addHash",
      "outputs": [],
      "payable": false,
      "stateMutability": "nonpayable",
      "type": "function",
      "signature": "0x4c787ef0"
    },
    {
      "constant": true,
      "inputs": [
        {
          "name": "studentAddress",
          "type": "address"
        },
        {
          "name": "collegeAddress",
          "type": "address"
        }
      ],
      "name": "getHash",
      "outputs": [
        {
          "name": "",
          "type": "string"
        }
      ],
      "payable": false,
      "stateMutability": "view",
      "type": "function",
      "signature": "0xf8cc1850"
    },
    {
      "constant": false,
      "inputs": [
        {
          "name": "_collegeAddress",
          "type": "address"
        }
      ],
      "name": "acceptCertification",
      "outputs": [],
      "payable": false,
      "stateMutability": "nonpayable",
      "type": "function",
      "signature": "0xcf14ae64"
    },
    {
      "constant": true,
      "inputs": [
        {
          "name": "_collegeAddress",
          "type": "address"
        }
      ],
      "name": "getCertContractAddress",
      "outputs": [
        {
          "name": "",
          "type": "address"
        }
      ],
      "payable": false,
      "stateMutability": "view",
      "type": "function",
      "signature": "0x62efca38"
    }
  ],
  "bytecode": "0x608060405234801561001057600080fd5b5061586c806100206000396000f3fe60806040526004361062000157576000357c0100000000000000000000000000000000000000000000000000000000900463ffffffff16806318014d15146200015c5780632df89cd314620001b15780634c787ef014620002795780635179fc4914620003725780635fd7b16a14620003c757806362efca3814620004d357806379554453146200056857806385870a6f14620005bd57806392f0a14014620007c057806395d3113a14620008b15780639776fb4c14620009a25780639e5c196c14620009fc578063a2ddb37c1462000a91578063a30250781462000ae6578063acbe8cee1462000b40578063b08ab8ea1462000b9a578063b204e9f31462000bef578063b7c2d0501462000c44578063c12b577b1462000de1578063c79a97451462000f54578063cf14ae64146200101c578063e37bdb001462001071578063ed2483aa14620011e5578063f8cc1850146200123f575b600080fd5b3480156200016957600080fd5b50620001af600480360360208110156200018257600080fd5b81019080803573ffffffffffffffffffffffffffffffffffffffff16906020019092919050505062001330565b005b348015620001be57600080fd5b506200020460048036036020811015620001d757600080fd5b81019080803573ffffffffffffffffffffffffffffffffffffffff16906020019092919050505062001456565b604051808373ffffffffffffffffffffffffffffffffffffffff1673ffffffffffffffffffffffffffffffffffffffff1681526020018273ffffffffffffffffffffffffffffffffffffffff1673ffffffffffffffffffffffffffffffffffffffff1681526020019250505060405180910390f35b3480156200028657600080fd5b5062000370600480360360608110156200029f57600080fd5b81019080803573ffffffffffffffffffffffffffffffffffffffff1690602001909291908035906020019092919080359060200190640100000000811115620002e757600080fd5b820183602082011115620002fa57600080fd5b803590602001918460018302840111640100000000831117156200031d57600080fd5b91908080601f016020809104026020016040519081016040528093929190818152602001838380828437600081840152601f19601f820116905080830192505050505050509192919290505050620015b4565b005b3480156200037f57600080fd5b50620003c5600480360360208110156200039857600080fd5b81019080803573ffffffffffffffffffffffffffffffffffffffff16906020019092919050505062001757565b005b348015620003d457600080fd5b50620003df62001883565b604051808060200184815260200180602001838103835286818151815260200191508051906020019080838360005b838110156200042b5780820151818401526020810190506200040e565b50505050905090810190601f168015620004595780820380516001836020036101000a031916815260200191505b50838103825284818151815260200191508051906020019080838360005b838110156200049457808201518184015260208101905062000477565b50505050905090810190601f168015620004c25780820380516001836020036101000a031916815260200191505b509550505050505060405180910390f35b348015620004e057600080fd5b506200052660048036036020811015620004f957600080fd5b81019080803573ffffffffffffffffffffffffffffffffffffffff16906020019092919050505062001aa6565b604051808273ffffffffffffffffffffffffffffffffffffffff1673ffffffffffffffffffffffffffffffffffffffff16815260200191505060405180910390f35b3480156200057557600080fd5b50620005bb600480360360208110156200058e57600080fd5b81019080803573ffffffffffffffffffffffffffffffffffffffff16906020019092919050505062001b4f565b005b348015620005ca57600080fd5b50620007be60048036036060811015620005e357600080fd5b81019080803590602001906401000000008111156200060157600080fd5b8201836020820111156200061457600080fd5b803590602001918460018302840111640100000000831117156200063757600080fd5b91908080601f016020809104026020016040519081016040528093929190818152602001838380828437600081840152601f19601f820116905080830192505050505050509192919290803590602001906401000000008111156200069b57600080fd5b820183602082011115620006ae57600080fd5b80359060200191846001830284011164010000000083111715620006d157600080fd5b91908080601f016020809104026020016040519081016040528093929190818152602001838380828437600081840152601f19601f820116905080830192505050505050509192919290803590602001906401000000008111156200073557600080fd5b8201836020820111156200074857600080fd5b803590602001918460018302840111640100000000831117156200076b57600080fd5b91908080601f016020809104026020016040519081016040528093929190818152602001838380828437600081840152601f19601f82011690508083019250505050505050919291929050505062001e7e565b005b348015620007cd57600080fd5b506200083360048036036040811015620007e657600080fd5b81019080803573ffffffffffffffffffffffffffffffffffffffff169060200190929190803573ffffffffffffffffffffffffffffffffffffffff169060200190929190505050620020c4565b6040518080602001828103825283818151815260200191508051906020019080838360005b838110156200087557808201518184015260208101905062000858565b50505050905090810190601f168015620008a35780820380516001836020036101000a031916815260200191505b509250505060405180910390f35b348015620008be57600080fd5b506200092460048036036040811015620008d757600080fd5b81019080803573ffffffffffffffffffffffffffffffffffffffff169060200190929190803573ffffffffffffffffffffffffffffffffffffffff16906020019092919050505062002272565b6040518080602001828103825283818151815260200191508051906020019080838360005b838110156200096657808201518184015260208101905062000949565b50505050905090810190601f168015620009945780820380516001836020036101000a031916815260200191505b509250505060405180910390f35b348015620009af57600080fd5b50620009ba62002420565b604051808273ffffffffffffffffffffffffffffffffffffffff1673ffffffffffffffffffffffffffffffffffffffff16815260200191505060405180910390f35b34801562000a0957600080fd5b5062000a4f6004803603602081101562000a2257600080fd5b81019080803573ffffffffffffffffffffffffffffffffffffffff169060200190929190505050620024a3565b604051808273ffffffffffffffffffffffffffffffffffffffff1673ffffffffffffffffffffffffffffffffffffffff16815260200191505060405180910390f35b34801562000a9e57600080fd5b5062000ae46004803603602081101562000ab757600080fd5b81019080803573ffffffffffffffffffffffffffffffffffffffff1690602001909291905050506200254c565b005b34801562000af357600080fd5b5062000afe62002672565b604051808273ffffffffffffffffffffffffffffffffffffffff1673ffffffffffffffffffffffffffffffffffffffff16815260200191505060405180910390f35b34801562000b4d57600080fd5b5062000b58620026f5565b604051808273ffffffffffffffffffffffffffffffffffffffff1673ffffffffffffffffffffffffffffffffffffffff16815260200191505060405180910390f35b34801562000ba757600080fd5b5062000bed6004803603602081101562000bc057600080fd5b81019080803573ffffffffffffffffffffffffffffffffffffffff16906020019092919050505062002778565b005b34801562000bfc57600080fd5b5062000c426004803603602081101562000c1557600080fd5b81019080803573ffffffffffffffffffffffffffffffffffffffff169060200190929190505050620029ae565b005b34801562000c5157600080fd5b5062000ddf600480360360a081101562000c6a57600080fd5b81019080803573ffffffffffffffffffffffffffffffffffffffff1690602001909291908035906020019064010000000081111562000ca857600080fd5b82018360208201111562000cbb57600080fd5b8035906020019184600183028401116401000000008311171562000cde57600080fd5b91908080601f016020809104026020016040519081016040528093929190818152602001838380828437600081840152601f19601f8201169050808301925050505050505091929192908035906020019064010000000081111562000d4257600080fd5b82018360208201111562000d5557600080fd5b8035906020019184600183028401116401000000008311171562000d7857600080fd5b91908080601f016020809104026020016040519081016040528093929190818152602001838380828437600081840152601f19601f820116905080830192505050505050509192919290803590602001909291908035906020019092919050505062002ada565b005b34801562000dee57600080fd5b5062000f526004803603606081101562000e0757600080fd5b810190808035906020019064010000000081111562000e2557600080fd5b82018360208201111562000e3857600080fd5b8035906020019184600183028401116401000000008311171562000e5b57600080fd5b91908080601f016020809104026020016040519081016040528093929190818152602001838380828437600081840152601f19601f820116905080830192505050505050509192919290803590602001909291908035906020019064010000000081111562000ec957600080fd5b82018360208201111562000edc57600080fd5b8035906020019184600183028401116401000000008311171562000eff57600080fd5b91908080601f016020809104026020016040519081016040528093929190818152602001838380828437600081840152601f19601f82011690508083019250505050505050919291929050505062002f39565b005b34801562000f6157600080fd5b5062000fa76004803603602081101562000f7a57600080fd5b81019080803573ffffffffffffffffffffffffffffffffffffffff16906020019092919050505062003157565b604051808373ffffffffffffffffffffffffffffffffffffffff1673ffffffffffffffffffffffffffffffffffffffff1681526020018273ffffffffffffffffffffffffffffffffffffffff1673ffffffffffffffffffffffffffffffffffffffff1681526020019250505060405180910390f35b3480156200102957600080fd5b506200106f600480360360208110156200104257600080fd5b81019080803573ffffffffffffffffffffffffffffffffffffffff169060200190929190505050620032b5565b005b3480156200107e57600080fd5b5062001089620033db565b60405180806020018060200180602001848103845287818151815260200191508051906020019080838360005b83811015620010d3578082015181840152602081019050620010b6565b50505050905090810190601f168015620011015780820380516001836020036101000a031916815260200191505b50848103835286818151815260200191508051906020019080838360005b838110156200113c5780820151818401526020810190506200111f565b50505050905090810190601f1680156200116a5780820380516001836020036101000a031916815260200191505b50848103825285818151815260200191508051906020019080838360005b83811015620011a557808201518184015260208101905062001188565b50505050905090810190601f168015620011d35780820380516001836020036101000a031916815260200191505b50965050505050505060405180910390f35b348015620011f257600080fd5b50620011fd62003699565b604051808273ffffffffffffffffffffffffffffffffffffffff1673ffffffffffffffffffffffffffffffffffffffff16815260200191505060405180910390f35b3480156200124c57600080fd5b50620012b2600480360360408110156200126557600080fd5b81019080803573ffffffffffffffffffffffffffffffffffffffff169060200190929190803573ffffffffffffffffffffffffffffffffffffffff1690602001909291905050506200371c565b6040518080602001828103825283818151815260200191508051906020019080838360005b83811015620012f4578082015181840152602081019050620012d7565b50505050905090810190601f168015620013225780820380516001836020036101000a031916815260200191505b509250505060405180910390f35b6000600360003373ffffffffffffffffffffffffffffffffffffffff1673ffffffffffffffffffffffffffffffffffffffff16815260200190815260200160002060040160008373ffffffffffffffffffffffffffffffffffffffff1673ffffffffffffffffffffffffffffffffffffffff16815260200190815260200160002060009054906101000a900473ffffffffffffffffffffffffffffffffffffffff1690508073ffffffffffffffffffffffffffffffffffffffff1663221486af6040518163ffffffff167c0100000000000000000000000000000000000000000000000000000000028152600401600060405180830381600087803b1580156200143957600080fd5b505af11580156200144e573d6000803e3d6000fd5b505050505050565b600080600083905060008173ffffffffffffffffffffffffffffffffffffffff16633c7328156040518163ffffffff167c010000000000000000000000000000000000000000000000000000000002815260040160206040518083038186803b158015620014c357600080fd5b505afa158015620014d8573d6000803e3d6000fd5b505050506040513d6020811015620014ef57600080fd5b8101908080519060200190929190505050905060008273ffffffffffffffffffffffffffffffffffffffff1663bd2f93d06040518163ffffffff167c010000000000000000000000000000000000000000000000000000000002815260040160206040518083038186803b1580156200156757600080fd5b505afa1580156200157c573d6000803e3d6000fd5b505050506040513d60208110156200159357600080fd5b81019080805190602001909291905050509050818194509450505050915091565b6000600360003373ffffffffffffffffffffffffffffffffffffffff1673ffffffffffffffffffffffffffffffffffffffff16815260200190815260200160002060060160008573ffffffffffffffffffffffffffffffffffffffff1673ffffffffffffffffffffffffffffffffffffffff16815260200190815260200160002060009054906101000a900473ffffffffffffffffffffffffffffffffffffffff1690508073ffffffffffffffffffffffffffffffffffffffff1663b06efa9e84846040518363ffffffff167c01000000000000000000000000000000000000000000000000000000000281526004018083815260200180602001828103825283818151815260200191508051906020019080838360005b83811015620016e9578082015181840152602081019050620016cc565b50505050905090810190601f168015620017175780820380516001836020036101000a031916815260200191505b509350505050600060405180830381600087803b1580156200173857600080fd5b505af11580156200174d573d6000803e3d6000fd5b5050505050505050565b6000600360003373ffffffffffffffffffffffffffffffffffffffff1673ffffffffffffffffffffffffffffffffffffffff16815260200190815260200160002060040160008373ffffffffffffffffffffffffffffffffffffffff1673ffffffffffffffffffffffffffffffffffffffff16815260200190815260200160002060009054906101000a900473ffffffffffffffffffffffffffffffffffffffff16905060008190508073ffffffffffffffffffffffffffffffffffffffff16637d50da176040518163ffffffff167c0100000000000000000000000000000000000000000000000000000000028152600401600060405180830381600087803b1580156200186557600080fd5b505af11580156200187a573d6000803e3d6000fd5b50505050505050565b60606000606080600160003373ffffffffffffffffffffffffffffffffffffffff1673ffffffffffffffffffffffffffffffffffffffff1681526020019081526020016000206000018054600181600116156101000203166002900480601f016020809104026020016040519081016040528092919081815260200182805460018160011615610100020316600290048015620019645780601f10620019385761010080835404028352916020019162001964565b820191906000526020600020905b8154815290600101906020018083116200194657829003601f168201915b505050505090506000600160003373ffffffffffffffffffffffffffffffffffffffff1673ffffffffffffffffffffffffffffffffffffffff1681526020019081526020016000206001015490506060600160003373ffffffffffffffffffffffffffffffffffffffff1673ffffffffffffffffffffffffffffffffffffffff1681526020019081526020016000206002018054600181600116156101000203166002900480601f01602080910402602001604051908101604052809291908181526020018280546001816001161561010002031660029004801562001a8e5780601f1062001a625761010080835404028352916020019162001a8e565b820191906000526020600020905b81548152906001019060200180831162001a7057829003601f168201915b50505050509050828282955095509550505050909192565b6000600160003373ffffffffffffffffffffffffffffffffffffffff1673ffffffffffffffffffffffffffffffffffffffff16815260200190815260200160002060060160008373ffffffffffffffffffffffffffffffffffffffff1673ffffffffffffffffffffffffffffffffffffffff16815260200190815260200160002060009054906101000a900473ffffffffffffffffffffffffffffffffffffffff169050919050565b60008162001b5c620038ca565b808273ffffffffffffffffffffffffffffffffffffffff1673ffffffffffffffffffffffffffffffffffffffff168152602001915050604051809103906000f08015801562001baf573d6000803e3d6000fd5b509050600160003373ffffffffffffffffffffffffffffffffffffffff1673ffffffffffffffffffffffffffffffffffffffff1681526020019081526020016000206005018190806001815401808255809150509060018203906000526020600020016000909192909190916101000a81548173ffffffffffffffffffffffffffffffffffffffff021916908373ffffffffffffffffffffffffffffffffffffffff1602179055505080600160003373ffffffffffffffffffffffffffffffffffffffff1673ffffffffffffffffffffffffffffffffffffffff16815260200190815260200160002060060160008473ffffffffffffffffffffffffffffffffffffffff1673ffffffffffffffffffffffffffffffffffffffff16815260200190815260200160002060006101000a81548173ffffffffffffffffffffffffffffffffffffffff021916908373ffffffffffffffffffffffffffffffffffffffff160217905550600360008373ffffffffffffffffffffffffffffffffffffffff1673ffffffffffffffffffffffffffffffffffffffff1681526020019081526020016000206005018190806001815401808255809150509060018203906000526020600020016000909192909190916101000a81548173ffffffffffffffffffffffffffffffffffffffff021916908373ffffffffffffffffffffffffffffffffffffffff1602179055505080600360008473ffffffffffffffffffffffffffffffffffffffff1673ffffffffffffffffffffffffffffffffffffffff16815260200190815260200160002060060160003373ffffffffffffffffffffffffffffffffffffffff1673ffffffffffffffffffffffffffffffffffffffff16815260200190815260200160002060006101000a81548173ffffffffffffffffffffffffffffffffffffffff021916908373ffffffffffffffffffffffffffffffffffffffff1602179055505050565b62001e88620038db565b60a060405190810160405280858152602001848152602001838152602001600060405190808252806020026020018201604052801562001ed75781602001602082028038833980820191505090505b508152602001600160405190808252806020026020018201604052801562001f0e5781602001602082028038833980820191505090505b50815250905060028190806001815401808255809150509060018203906000526020600020906007020160009091929091909150600082015181600001908051906020019062001f609291906200390b565b50602082015181600101908051906020019062001f7f9291906200390b565b50604082015181600201908051906020019062001f9e9291906200390b565b50606082015181600301908051906020019062001fbd92919062003992565b50608082015181600501908051906020019062001fdc92919062003992565b5050505080600360003373ffffffffffffffffffffffffffffffffffffffff1673ffffffffffffffffffffffffffffffffffffffff16815260200190815260200160002060008201518160000190805190602001906200203e9291906200390b565b5060208201518160010190805190602001906200205d9291906200390b565b5060408201518160020190805190602001906200207c9291906200390b565b5060608201518160030190805190602001906200209b92919062003992565b506080820151816005019080519060200190620020ba92919062003992565b5090505050505050565b60606000600160008573ffffffffffffffffffffffffffffffffffffffff1673ffffffffffffffffffffffffffffffffffffffff16815260200190815260200160002060060160008473ffffffffffffffffffffffffffffffffffffffff1673ffffffffffffffffffffffffffffffffffffffff16815260200190815260200160002060009054906101000a900473ffffffffffffffffffffffffffffffffffffffff16905060008190508073ffffffffffffffffffffffffffffffffffffffff16637f70e9756040518163ffffffff167c010000000000000000000000000000000000000000000000000000000002815260040160006040518083038186803b158015620021d257600080fd5b505afa158015620021e7573d6000803e3d6000fd5b505050506040513d6000823e3d601f19601f8201168201806040525060208110156200221257600080fd5b8101908080516401000000008111156200222b57600080fd5b828101905060208101848111156200224257600080fd5b81518560018202830111640100000000821117156200226057600080fd5b50509291905050509250505092915050565b60606000600160008573ffffffffffffffffffffffffffffffffffffffff1673ffffffffffffffffffffffffffffffffffffffff16815260200190815260200160002060040160008473ffffffffffffffffffffffffffffffffffffffff1673ffffffffffffffffffffffffffffffffffffffff16815260200190815260200160002060009054906101000a900473ffffffffffffffffffffffffffffffffffffffff16905060008190508073ffffffffffffffffffffffffffffffffffffffff1663e35fb2416040518163ffffffff167c010000000000000000000000000000000000000000000000000000000002815260040160006040518083038186803b1580156200238057600080fd5b505afa15801562002395573d6000803e3d6000fd5b505050506040513d6000823e3d601f19601f820116820180604052506020811015620023c057600080fd5b810190808051640100000000811115620023d957600080fd5b82810190506020810184811115620023f057600080fd5b81518560018202830111640100000000821117156200240e57600080fd5b50509291905050509250505092915050565b6000600160003373ffffffffffffffffffffffffffffffffffffffff1673ffffffffffffffffffffffffffffffffffffffff16815260200190815260200160002060050160008154811015156200247357fe5b9060005260206000200160009054906101000a900473ffffffffffffffffffffffffffffffffffffffff16905090565b6000600360003373ffffffffffffffffffffffffffffffffffffffff1673ffffffffffffffffffffffffffffffffffffffff16815260200190815260200160002060040160008373ffffffffffffffffffffffffffffffffffffffff1673ffffffffffffffffffffffffffffffffffffffff16815260200190815260200160002060009054906101000a900473ffffffffffffffffffffffffffffffffffffffff169050919050565b6000600360003373ffffffffffffffffffffffffffffffffffffffff1673ffffffffffffffffffffffffffffffffffffffff16815260200190815260200160002060060160008373ffffffffffffffffffffffffffffffffffffffff1673ffffffffffffffffffffffffffffffffffffffff16815260200190815260200160002060009054906101000a900473ffffffffffffffffffffffffffffffffffffffff1690508073ffffffffffffffffffffffffffffffffffffffff1663818169336040518163ffffffff167c0100000000000000000000000000000000000000000000000000000000028152600401600060405180830381600087803b1580156200265557600080fd5b505af11580156200266a573d6000803e3d6000fd5b505050505050565b6000600360003373ffffffffffffffffffffffffffffffffffffffff1673ffffffffffffffffffffffffffffffffffffffff1681526020019081526020016000206005016000815481101515620026c557fe5b9060005260206000200160009054906101000a900473ffffffffffffffffffffffffffffffffffffffff16905090565b6000600160003373ffffffffffffffffffffffffffffffffffffffff1673ffffffffffffffffffffffffffffffffffffffff16815260200190815260200160002060030160008154811015156200274857fe5b9060005260206000200160009054906101000a900473ffffffffffffffffffffffffffffffffffffffff16905090565b6000600160003373ffffffffffffffffffffffffffffffffffffffff1673ffffffffffffffffffffffffffffffffffffffff16815260200190815260200160002060060160008373ffffffffffffffffffffffffffffffffffffffff1673ffffffffffffffffffffffffffffffffffffffff16815260200190815260200160002060009054906101000a900473ffffffffffffffffffffffffffffffffffffffff1690506000600160003373ffffffffffffffffffffffffffffffffffffffff1673ffffffffffffffffffffffffffffffffffffffff16815260200190815260200160002060040160008473ffffffffffffffffffffffffffffffffffffffff1673ffffffffffffffffffffffffffffffffffffffff16815260200190815260200160002060009054906101000a900473ffffffffffffffffffffffffffffffffffffffff1690508173ffffffffffffffffffffffffffffffffffffffff16633bf6d35c84836040518363ffffffff167c0100000000000000000000000000000000000000000000000000000000028152600401808373ffffffffffffffffffffffffffffffffffffffff1673ffffffffffffffffffffffffffffffffffffffff1681526020018273ffffffffffffffffffffffffffffffffffffffff1673ffffffffffffffffffffffffffffffffffffffff16815260200192505050600060405180830381600087803b1580156200299057600080fd5b505af1158015620029a5573d6000803e3d6000fd5b50505050505050565b6000600160003373ffffffffffffffffffffffffffffffffffffffff1673ffffffffffffffffffffffffffffffffffffffff16815260200190815260200160002060040160008373ffffffffffffffffffffffffffffffffffffffff1673ffffffffffffffffffffffffffffffffffffffff16815260200190815260200160002060009054906101000a900473ffffffffffffffffffffffffffffffffffffffff16905060008190508073ffffffffffffffffffffffffffffffffffffffff166324615e766040518163ffffffff167c0100000000000000000000000000000000000000000000000000000000028152600401600060405180830381600087803b15801562002abc57600080fd5b505af115801562002ad1573d6000803e3d6000fd5b50505050505050565b338533876000338a8a8a8a8a62002af062003a21565b808773ffffffffffffffffffffffffffffffffffffffff1673ffffffffffffffffffffffffffffffffffffffff1681526020018673ffffffffffffffffffffffffffffffffffffffff1673ffffffffffffffffffffffffffffffffffffffff1681526020018060200180602001858152602001848152602001838103835287818151815260200191508051906020019080838360005b8381101562002ba357808201518184015260208101905062002b86565b50505050905090810190601f16801562002bd15780820380516001836020036101000a031916815260200191505b50838103825286818151815260200191508051906020019080838360005b8381101562002c0c57808201518184015260208101905062002bef565b50505050905090810190601f16801562002c3a5780820380516001836020036101000a031916815260200191505b5098505050505050505050604051809103906000f08015801562002c62573d6000803e3d6000fd5b509050600160003373ffffffffffffffffffffffffffffffffffffffff1673ffffffffffffffffffffffffffffffffffffffff1681526020019081526020016000206003018190806001815401808255809150509060018203906000526020600020016000909192909190916101000a81548173ffffffffffffffffffffffffffffffffffffffff021916908373ffffffffffffffffffffffffffffffffffffffff1602179055505080600160003373ffffffffffffffffffffffffffffffffffffffff1673ffffffffffffffffffffffffffffffffffffffff16815260200190815260200160002060040160008c73ffffffffffffffffffffffffffffffffffffffff1673ffffffffffffffffffffffffffffffffffffffff16815260200190815260200160002060006101000a81548173ffffffffffffffffffffffffffffffffffffffff021916908373ffffffffffffffffffffffffffffffffffffffff160217905550600360008b73ffffffffffffffffffffffffffffffffffffffff1673ffffffffffffffffffffffffffffffffffffffff1681526020019081526020016000206003018190806001815401808255809150509060018203906000526020600020016000909192909190916101000a81548173ffffffffffffffffffffffffffffffffffffffff021916908373ffffffffffffffffffffffffffffffffffffffff1602179055505080600360008c73ffffffffffffffffffffffffffffffffffffffff1673ffffffffffffffffffffffffffffffffffffffff16815260200190815260200160002060040160003373ffffffffffffffffffffffffffffffffffffffff1673ffffffffffffffffffffffffffffffffffffffff16815260200190815260200160002060006101000a81548173ffffffffffffffffffffffffffffffffffffffff021916908373ffffffffffffffffffffffffffffffffffffffff16021790555050505050505050505050565b3362002f4462003a32565b60a060405190810160405280868152602001858152602001848152602001600060405190808252806020026020018201604052801562002f935781602001602082028038833980820191505090505b508152602001600160405190808252806020026020018201604052801562002fca5781602001602082028038833980820191505090505b5081525090506000819080600181540180825580915050906001820390600052602060002090600702016000909192909190915060008201518160000190805190602001906200301c9291906200390b565b50602082015181600101556040820151816002019080519060200190620030459291906200390b565b5060608201518160030190805190602001906200306492919062003992565b5060808201518160050190805190602001906200308392919062003992565b5050505080600160003373ffffffffffffffffffffffffffffffffffffffff1673ffffffffffffffffffffffffffffffffffffffff1681526020019081526020016000206000820151816000019080519060200190620030e59291906200390b565b506020820151816001015560408201518160020190805190602001906200310e9291906200390b565b5060608201518160030190805190602001906200312d92919062003992565b5060808201518160050190805190602001906200314c92919062003992565b509050505050505050565b600080600083905060008173ffffffffffffffffffffffffffffffffffffffff16633c7328156040518163ffffffff167c010000000000000000000000000000000000000000000000000000000002815260040160206040518083038186803b158015620031c457600080fd5b505afa158015620031d9573d6000803e3d6000fd5b505050506040513d6020811015620031f057600080fd5b8101908080519060200190929190505050905060008273ffffffffffffffffffffffffffffffffffffffff1663bd2f93d06040518163ffffffff167c010000000000000000000000000000000000000000000000000000000002815260040160206040518083038186803b1580156200326857600080fd5b505afa1580156200327d573d6000803e3d6000fd5b505050506040513d60208110156200329457600080fd5b81019080805190602001909291905050509050818194509450505050915091565b6000600160003373ffffffffffffffffffffffffffffffffffffffff1673ffffffffffffffffffffffffffffffffffffffff16815260200190815260200160002060060160008373ffffffffffffffffffffffffffffffffffffffff1673ffffffffffffffffffffffffffffffffffffffff16815260200190815260200160002060009054906101000a900473ffffffffffffffffffffffffffffffffffffffff1690508073ffffffffffffffffffffffffffffffffffffffff166337feafd46040518163ffffffff167c0100000000000000000000000000000000000000000000000000000000028152600401600060405180830381600087803b158015620033be57600080fd5b505af1158015620033d3573d6000803e3d6000fd5b505050505050565b606080606080600360003373ffffffffffffffffffffffffffffffffffffffff1673ffffffffffffffffffffffffffffffffffffffff1681526020019081526020016000206000018054600181600116156101000203166002900480601f016020809104026020016040519081016040528092919081815260200182805460018160011615610100020316600290048015620034bb5780601f106200348f57610100808354040283529160200191620034bb565b820191906000526020600020905b8154815290600101906020018083116200349d57829003601f168201915b505050505090506060600360003373ffffffffffffffffffffffffffffffffffffffff1673ffffffffffffffffffffffffffffffffffffffff1681526020019081526020016000206001018054600181600116156101000203166002900480601f0160208091040260200160405190810160405280929190818152602001828054600181600116156101000203166002900480156200359e5780601f1062003572576101008083540402835291602001916200359e565b820191906000526020600020905b8154815290600101906020018083116200358057829003601f168201915b505050505090506060600360003373ffffffffffffffffffffffffffffffffffffffff1673ffffffffffffffffffffffffffffffffffffffff1681526020019081526020016000206002018054600181600116156101000203166002900480601f016020809104026020016040519081016040528092919081815260200182805460018160011615610100020316600290048015620036815780601f10620036555761010080835404028352916020019162003681565b820191906000526020600020905b8154815290600101906020018083116200366357829003601f168201915b50505050509050828282955095509550505050909192565b6000600360003373ffffffffffffffffffffffffffffffffffffffff1673ffffffffffffffffffffffffffffffffffffffff1681526020019081526020016000206003016000815481101515620036ec57fe5b9060005260206000200160009054906101000a900473ffffffffffffffffffffffffffffffffffffffff16905090565b60606000600160008573ffffffffffffffffffffffffffffffffffffffff1673ffffffffffffffffffffffffffffffffffffffff16815260200190815260200160002060060160008473ffffffffffffffffffffffffffffffffffffffff1673ffffffffffffffffffffffffffffffffffffffff16815260200190815260200160002060009054906101000a900473ffffffffffffffffffffffffffffffffffffffff16905060008190508073ffffffffffffffffffffffffffffffffffffffff1663ae15eb8e6040518163ffffffff167c010000000000000000000000000000000000000000000000000000000002815260040160006040518083038186803b1580156200382a57600080fd5b505afa1580156200383f573d6000803e3d6000fd5b505050506040513d6000823e3d601f19601f8201168201806040525060208110156200386a57600080fd5b8101908080516401000000008111156200388357600080fd5b828101905060208101848111156200389a57600080fd5b8151856001820283011164010000000082111715620038b857600080fd5b50509291905050509250505092915050565b604051610fad8062003ad183390190565b60a06040519081016040528060608152602001606081526020016060815260200160608152602001606081525090565b828054600181600116156101000203166002900490600052602060002090601f016020900481019282601f106200394e57805160ff19168380011785556200397f565b828001600101855582156200397f579182015b828111156200397e57825182559160200191906001019062003961565b5b5090506200398e919062003a62565b5090565b82805482825590600052602060002090810192821562003a0e579160200282015b8281111562003a0d5782518260006101000a81548173ffffffffffffffffffffffffffffffffffffffff021916908373ffffffffffffffffffffffffffffffffffffffff16021790555091602001919060010190620039b3565b5b50905062003a1d919062003a8a565b5090565b604051610dc38062004a7e83390190565b60a06040519081016040528060608152602001600081526020016060815260200160608152602001606081525090565b62003a8791905b8082111562003a8357600081600090555060010162003a69565b5090565b90565b62003acd91905b8082111562003ac957600081816101000a81549073ffffffffffffffffffffffffffffffffffffffff02191690555060010162003a91565b5090565b9056fe6080604052600080556000600560006101000a81548160ff0219169083600381111561002757fe5b021790555034801561003857600080fd5b50604051602080610fad8339810180604052602081101561005857600080fd5b810190808051906020019092919050505080600160006101000a81548173ffffffffffffffffffffffffffffffffffffffff021916908373ffffffffffffffffffffffffffffffffffffffff16021790555032600260006101000a81548173ffffffffffffffffffffffffffffffffffffffff021916908373ffffffffffffffffffffffffffffffffffffffff16021790555050610eb2806100fb6000396000f3fe6080604052600436106100d0576000357c0100000000000000000000000000000000000000000000000000000000900463ffffffff16806337feafd4146100d55780633bf6d35c146100ec5780633c7328151461015d5780635aff5999146101b45780635c9105981461020b5780637f70e9751461029b578063818169331461032b578063a63234e014610342578063ae15eb8e14610399578063b06efa9e14610429578063bd2f93d0146104fb578063c040e6b814610552578063de25fc171461058b578063f8a8fd6d146105b6575b600080fd5b3480156100e157600080fd5b506100ea6105e1565b005b3480156100f857600080fd5b5061015b6004803603604081101561010f57600080fd5b81019080803573ffffffffffffffffffffffffffffffffffffffff169060200190929190803573ffffffffffffffffffffffffffffffffffffffff16906020019092919050505061067f565b005b34801561016957600080fd5b50610172610924565b604051808273ffffffffffffffffffffffffffffffffffffffff1673ffffffffffffffffffffffffffffffffffffffff16815260200191505060405180910390f35b3480156101c057600080fd5b506101c961094e565b604051808273ffffffffffffffffffffffffffffffffffffffff1673ffffffffffffffffffffffffffffffffffffffff16815260200191505060405180910390f35b34801561021757600080fd5b50610220610974565b6040518080602001828103825283818151815260200191508051906020019080838360005b83811015610260578082015181840152602081019050610245565b50505050905090810190601f16801561028d5780820380516001836020036101000a031916815260200191505b509250505060405180910390f35b3480156102a757600080fd5b506102b0610a12565b6040518080602001828103825283818151815260200191508051906020019080838360005b838110156102f05780820151818401526020810190506102d5565b50505050905090810190601f16801561031d5780820380516001836020036101000a031916815260200191505b509250505060405180910390f35b34801561033757600080fd5b50610340610bc3565b005b34801561034e57600080fd5b50610357610c61565b604051808273ffffffffffffffffffffffffffffffffffffffff1673ffffffffffffffffffffffffffffffffffffffff16815260200191505060405180910390f35b3480156103a557600080fd5b506103ae610c87565b6040518080602001828103825283818151815260200191508051906020019080838360005b838110156103ee5780820151818401526020810190506103d3565b50505050905090810190601f16801561041b5780820380516001836020036101000a031916815260200191505b509250505060405180910390f35b34801561043557600080fd5b506104f96004803603604081101561044c57600080fd5b81019080803590602001909291908035906020019064010000000081111561047357600080fd5b82018360208201111561048557600080fd5b803590602001918460018302840111640100000000831117156104a757600080fd5b91908080601f016020809104026020016040519081016040528093929190818152602001838380828437600081840152601f19601f820116905080830192505050505050509192919290505050610d29565b005b34801561050757600080fd5b50610510610d4b565b604051808273ffffffffffffffffffffffffffffffffffffffff1673ffffffffffffffffffffffffffffffffffffffff16815260200191505060405180910390f35b34801561055e57600080fd5b50610567610d75565b6040518082600381111561057757fe5b60ff16815260200191505060405180910390f35b34801561059757600080fd5b506105a0610d88565b6040518082815260200191505060405180910390f35b3480156105c257600080fd5b506105cb610d8e565b6040518082815260200191505060405180910390f35b60028060038111156105ef57fe5b600560009054906101000a900460ff16600381111561060a57fe5b14151561061657600080fd5b32600260009054906101000a900473ffffffffffffffffffffffffffffffffffffffff1673ffffffffffffffffffffffffffffffffffffffff168173ffffffffffffffffffffffffffffffffffffffff1614151561067357600080fd5b61067b610d94565b5050565b600080600381111561068d57fe5b600560009054906101000a900460ff1660038111156106a857fe5b1415156106b457600080fd5b82328360008190508073ffffffffffffffffffffffffffffffffffffffff1663bd2f93d06040518163ffffffff167c010000000000000000000000000000000000000000000000000000000002815260040160206040518083038186803b15801561071e57600080fd5b505afa158015610732573d6000803e3d6000fd5b505050506040513d602081101561074857600080fd5b810190808051906020019092919050505073ffffffffffffffffffffffffffffffffffffffff168473ffffffffffffffffffffffffffffffffffffffff1614151561079257600080fd5b8073ffffffffffffffffffffffffffffffffffffffff16633c7328156040518163ffffffff167c010000000000000000000000000000000000000000000000000000000002815260040160206040518083038186803b1580156107f457600080fd5b505afa158015610808573d6000803e3d6000fd5b505050506040513d602081101561081e57600080fd5b810190808051906020019092919050505073ffffffffffffffffffffffffffffffffffffffff168373ffffffffffffffffffffffffffffffffffffffff1614151561086857600080fd5b8073ffffffffffffffffffffffffffffffffffffffff1663fcaa76646040518163ffffffff167c010000000000000000000000000000000000000000000000000000000002815260040160206040518083038186803b1580156108ca57600080fd5b505afa1580156108de573d6000803e3d6000fd5b505050506040513d60208110156108f457600080fd5b8101908080519060200190929190505050600210151561091357600080fd5b61091b610d94565b50505050505050565b6000600260009054906101000a900473ffffffffffffffffffffffffffffffffffffffff16905090565b600260009054906101000a900473ffffffffffffffffffffffffffffffffffffffff1681565b60048054600181600116156101000203166002900480601f016020809104026020016040519081016040528092919081815260200182805460018160011615610100020316600290048015610a0a5780601f106109df57610100808354040283529160200191610a0a565b820191906000526020600020905b8154815290600101906020018083116109ed57829003601f168201915b505050505081565b6060600560009054906101000a900460ff166003811115610a2f57fe5b60006003811115610a3c57fe5b1415610a7f576040805190810160405280601b81526020017f416363657074696e6743657274696669636174655265717565737400000000008152509050610bc0565b600560009054906101000a900460ff166003811115610a9a57fe5b60016003811115610aa757fe5b1415610aea576040805190810160405280601281526020017f52657175657374436572746966696361746500000000000000000000000000008152509050610bc0565b600560009054906101000a900460ff166003811115610b0557fe5b60026003811115610b1257fe5b1415610b55576040805190810160405280601081526020017f49737375654365727469666963617465000000000000000000000000000000008152509050610bc0565b600560009054906101000a900460ff166003811115610b7057fe5b600380811115610b7c57fe5b1415610bbf576040805190810160405280601181526020017f61636365707443657274696669636174650000000000000000000000000000008152509050610bc0565b5b90565b6001806003811115610bd157fe5b600560009054906101000a900460ff166003811115610bec57fe5b141515610bf857600080fd5b32600160009054906101000a900473ffffffffffffffffffffffffffffffffffffffff1673ffffffffffffffffffffffffffffffffffffffff168173ffffffffffffffffffffffffffffffffffffffff16141515610c5557600080fd5b610c5d610d94565b5050565b600160009054906101000a900473ffffffffffffffffffffffffffffffffffffffff1681565b606060048054600181600116156101000203166002900480601f016020809104026020016040519081016040528092919081815260200182805460018160011615610100020316600290048015610d1f5780601f10610cf457610100808354040283529160200191610d1f565b820191906000526020600020905b815481529060010190602001808311610d0257829003601f168201915b5050505050905090565b816003819055508060049080519060200190610d46929190610de1565b505050565b6000600160009054906101000a900473ffffffffffffffffffffffffffffffffffffffff16905090565b600560009054906101000a900460ff1681565b60035481565b60005481565b6001600560009054906101000a900460ff166003811115610db157fe5b016003811115610dbd57fe5b600560006101000a81548160ff02191690836003811115610dda57fe5b0217905550565b828054600181600116156101000203166002900490600052602060002090601f016020900481019282601f10610e2257805160ff1916838001178555610e50565b82800160010185558215610e50579182015b82811115610e4f578251825591602001919060010190610e34565b5b509050610e5d9190610e61565b5090565b610e8391905b80821115610e7f576000816000905550600101610e67565b5090565b9056fea165627a7a72305820556555d16c5ebbf232fa0d5bb1a4c600c967154f24fa02b0e76d32dbcd42df070029608060405260006002556000600760006101000a81548160ff021916908360038111156200002957fe5b0217905550426008553480156200003f57600080fd5b5060405162000dc338038062000dc3833981018060405260c08110156200006557600080fd5b81019080805190602001909291908051906020019092919080516401000000008111156200009257600080fd5b82810190506020810184811115620000a957600080fd5b8151856001820283011164010000000082111715620000c757600080fd5b50509291906020018051640100000000811115620000e457600080fd5b82810190506020810184811115620000fb57600080fd5b81518560018202830111640100000000821117156200011957600080fd5b50509291906020018051906020019092919080519060200190929190505050856000806101000a81548173ffffffffffffffffffffffffffffffffffffffff021916908373ffffffffffffffffffffffffffffffffffffffff16021790555084600160006101000a81548173ffffffffffffffffffffffffffffffffffffffff021916908373ffffffffffffffffffffffffffffffffffffffff1602179055506080604051908101604052808581526020018481526020018381526020018281525060036000820151816000019080519060200190620001fb9291906200023e565b5060208201518160010190805190602001906200021a9291906200023e565b506040820151816002015560608201518160030155905050505050505050620002ed565b828054600181600116156101000203166002900490600052602060002090601f016020900481019282601f106200028157805160ff1916838001178555620002b2565b82800160010185558215620002b2579182015b82811115620002b157825182559160200191906001019062000294565b5b509050620002c19190620002c5565b5090565b620002ea91905b80821115620002e6576000816000905550600101620002cc565b5090565b90565b610ac680620002fd6000396000f3fe6080604052600436106100af576000357c0100000000000000000000000000000000000000000000000000000000900463ffffffff168063221486af146100b457806324615e76146100cb5780633c732815146100e257806353bda469146101395780637d50da1714610190578063b8f31a81146101a7578063bd2f93d0146101fe578063c040e6b814610255578063d8270dce1461028e578063e35fb241146102b9578063fcaa766414610349575b600080fd5b3480156100c057600080fd5b506100c9610374565b005b3480156100d757600080fd5b506100e06104e4565b005b3480156100ee57600080fd5b506100f7610653565b604051808273ffffffffffffffffffffffffffffffffffffffff1673ffffffffffffffffffffffffffffffffffffffff16815260200191505060405180910390f35b34801561014557600080fd5b5061014e61067c565b604051808273ffffffffffffffffffffffffffffffffffffffff1673ffffffffffffffffffffffffffffffffffffffff16815260200191505060405180910390f35b34801561019c57600080fd5b506101a56106a2565b005b3480156101b357600080fd5b506101bc610812565b604051808273ffffffffffffffffffffffffffffffffffffffff1673ffffffffffffffffffffffffffffffffffffffff16815260200191505060405180910390f35b34801561020a57600080fd5b50610213610837565b604051808273ffffffffffffffffffffffffffffffffffffffff1673ffffffffffffffffffffffffffffffffffffffff16815260200191505060405180910390f35b34801561026157600080fd5b5061026a610861565b6040518082600381111561027a57fe5b60ff16815260200191505060405180910390f35b34801561029a57600080fd5b506102a3610874565b6040518082815260200191505060405180910390f35b3480156102c557600080fd5b506102ce61087a565b6040518080602001828103825283818151815260200191508051906020019080838360005b8381101561030e5780820151818401526020810190506102f3565b50505050905090810190601f16801561033b5780820380516001836020036101000a031916815260200191505b509250505060405180910390f35b34801561035557600080fd5b5061035e610a2b565b6040518082815260200191505060405180910390f35b600080600381111561038257fe5b600760009054906101000a900460ff16600381111561039d57fe5b141515610412576040517f08c379a00000000000000000000000000000000000000000000000000000000081526004018080602001828103825260168152602001807f4572726f722061745374616765206d6f6469666965720000000000000000000081525060200191505060405180910390fd5b32600160009054906101000a900473ffffffffffffffffffffffffffffffffffffffff1673ffffffffffffffffffffffffffffffffffffffff168173ffffffffffffffffffffffffffffffffffffffff161415156104d8576040517f08c379a00000000000000000000000000000000000000000000000000000000081526004018080602001828103825260188152602001807f4572726f72206d6f646966696572206973436f6c6c656765000000000000000081525060200191505060405180910390fd5b6104e0610a4d565b5050565b60028060038111156104f257fe5b600760009054906101000a900460ff16600381111561050d57fe5b141515610582576040517f08c379a00000000000000000000000000000000000000000000000000000000081526004018080602001828103825260168152602001807f4572726f722061745374616765206d6f6469666965720000000000000000000081525060200191505060405180910390fd5b326000809054906101000a900473ffffffffffffffffffffffffffffffffffffffff1673ffffffffffffffffffffffffffffffffffffffff168173ffffffffffffffffffffffffffffffffffffffff16141515610647576040517f08c379a00000000000000000000000000000000000000000000000000000000081526004018080602001828103825260188152602001807f4572726f72206d6f64696669657220697353747564656e74000000000000000081525060200191505060405180910390fd5b61064f610a4d565b5050565b60008060009054906101000a900473ffffffffffffffffffffffffffffffffffffffff16905090565b600160009054906101000a900473ffffffffffffffffffffffffffffffffffffffff1681565b60018060038111156106b057fe5b600760009054906101000a900460ff1660038111156106cb57fe5b141515610740576040517f08c379a00000000000000000000000000000000000000000000000000000000081526004018080602001828103825260168152602001807f4572726f722061745374616765206d6f6469666965720000000000000000000081525060200191505060405180910390fd5b32600160009054906101000a900473ffffffffffffffffffffffffffffffffffffffff1673ffffffffffffffffffffffffffffffffffffffff168173ffffffffffffffffffffffffffffffffffffffff16141515610806576040517f08c379a00000000000000000000000000000000000000000000000000000000081526004018080602001828103825260188152602001807f4572726f72206d6f646966696572206973436f6c6c656765000000000000000081525060200191505060405180910390fd5b61080e610a4d565b5050565b6000809054906101000a900473ffffffffffffffffffffffffffffffffffffffff1681565b6000600160009054906101000a900473ffffffffffffffffffffffffffffffffffffffff16905090565b600760009054906101000a900460ff1681565b60085481565b6060600760009054906101000a900460ff16600381111561089757fe5b600060038111156108a457fe5b14156108e7576040805190810160405280601681526020017f52657175657374666f72526567697374726174696f6e000000000000000000008152509050610a28565b600760009054906101000a900460ff16600381111561090257fe5b6001600381111561090f57fe5b1415610952576040805190810160405280601481526020017f56657269667953747564656e7450726f66696c650000000000000000000000008152509050610a28565b600760009054906101000a900460ff16600381111561096d57fe5b6002600381111561097a57fe5b14156109bd576040805190810160405280601381526020017f417070726f7665526567697374726174696f6e000000000000000000000000008152509050610a28565b600760009054906101000a900460ff1660038111156109d857fe5b6003808111156109e457fe5b1415610a27576040805190810160405280601281526020017f416363657074526567697374726174696f6e00000000000000000000000000008152509050610a28565b5b90565b6000600760009054906101000a900460ff166003811115610a4857fe5b905090565b6001600760009054906101000a900460ff166003811115610a6a57fe5b016003811115610a7657fe5b600760006101000a81548160ff02191690836003811115610a9357fe5b021790555056fea165627a7a72305820ad7f444492e0fe083577379a08c5092b44f83aedc8d648725b72bbc4e8306b520029a165627a7a723058209710611414166e4d90ff7d9049fc0d2f4396774e7671015e2053f3772f9825c80029",
  "source": "pragma solidity ^0.5.0;\n\ncontract RegistrationAndCertificateContractFactory {\n\n    struct Student {\n        string fullName;\n        uint phoneNumber;\n        string emailId;\n        address[] registrationContracts;\n        mapping(address => address) registrationContractByCollege;\n        address[] certificationContracts;\n        mapping(address=>address) certificateContractsByCollege;\n    }\n    \n    struct College {\n        string instituteName;\n        string instituteCode;\n        string instituteAISHECode;\n        address[] registrationContracts; // if the status is \"Accept Registration\" we need not show it under verify profile(other operations)\n        mapping(address => address) registrationContractByStudent;\n        address[] certificationContracts;\n        mapping(address=>address) certificateContractsByStudent;\n    }\n    \n    Student[]  studentList;\n    mapping(address => Student) studentsInfo;\n    \n    College[]  collegeList;\n    mapping(address => College) collegesInfo;\n    \n    function getFirstCollege(address _studentAddress) public view returns(address){\n        return collegesInfo[msg.sender].registrationContractByStudent[_studentAddress];\n    }\n    function getFirstStudent() public view returns(address){\n        return studentsInfo[msg.sender].registrationContracts[0];\n    }\n\n    function cRegistrationContract() public view returns(address){\n        return collegesInfo[msg.sender].registrationContracts[0];\n    }\n\n    function sCertificationContract() public view returns(address){\n        return studentsInfo[msg.sender].certificationContracts[0];\n    }\n\n    function cCertificationContract() public view returns(address){\n        return collegesInfo[msg.sender].certificationContracts[0];\n    }\n\n    function getStudentData() public view returns(string memory,uint,string memory){\n        string memory _name = studentsInfo[msg.sender].fullName;\n        uint _phoneNumber = studentsInfo[msg.sender].phoneNumber;\n        string memory _emailId = studentsInfo[msg.sender].emailId;  \n        return(_name,_phoneNumber,_emailId);\n    }\n\n    function getCollegeData() public view returns(string memory, string memory, string memory){\n        \n        string memory _instituteName=collegesInfo[msg.sender].instituteName;\n        string memory _instituteCode=collegesInfo[msg.sender].instituteCode;\n        string memory _instituteAISHECode=collegesInfo[msg.sender].instituteAISHECode;\n        return(_instituteName,_instituteCode,_instituteAISHECode);\n    }\n\n    function regStuCollAddress(address _regContractAddress) public view returns(address, address){\n        RegistrationContract registrationContract = RegistrationContract(_regContractAddress);\n        address studentAddress = registrationContract.getStudentAddress();\n        address collegeAddress = registrationContract.getCollegeAddress();\n        return(studentAddress,collegeAddress);\n\n    }\n\n    function certStuCollAddress(address _certContractAddress) public view returns(address, address){\n        CertificateContract certificateContract = CertificateContract(_certContractAddress);\n        address studentAddress = certificateContract.getStudentAddress();\n        address collegeAddress = certificateContract.getCollegeAddress();\n        return(studentAddress,collegeAddress);\n\n    }\n\n    /*function getRegisteredStudentData(address _studentAddress) public view returns(string memory,string memory,uint,uint){\n        \n    }  */\n\n   /* function regCollegeList() public view returns(College[] memory){\n        return(collegeList);\n    } */\n    \n    function createStudent( string memory name, uint phoneNumber,  string memory emailId) public doesStudentExist(msg.sender){\n        Student memory newStudent = Student(name, phoneNumber,emailId, new address[](0),  new address[](1) );\n        studentList.push(newStudent);\n        studentsInfo[msg.sender] = newStudent;\n    }\n    \n    \n    function createCollege(string memory instituteName, string memory instituteCode, string memory instituteAISHECode) public {\n        College memory newCollege = College(instituteName, instituteCode, instituteAISHECode, new address[](0),  new address[](1));\n        collegeList.push(newCollege);\n        collegesInfo[msg.sender] = newCollege;\n    }\n    \n    modifier doesStudentExist(address studentAddress) {\n        // check if studentAddress is present in studentList or not.\n        _;\n    }\n    \n    modifier doesCollegeExist(address collegeAddress) {\n        // check if collegeAddress is present in collegeList or not\n        _;\n    }\n    \n    modifier notAlreadyRegistered(address studentAddress, address collegeAddress) {\n        // check if collegeStudentRegistrationContracts[collegeAddress][studentAddress] is empty or notAlreadyRegistered\n        _;\n    }\n    \n    function startRegistration(\n        address collegeAddress, string memory collegeRegNumber, string memory collegeEmailId, uint collegeDoJ, uint collegeDateOfPassing) doesStudentExist(msg.sender) doesCollegeExist(collegeAddress) notAlreadyRegistered(msg.sender, collegeAddress) public{\n        RegistrationContract newRegistrationContract = new \n        RegistrationContract(msg.sender, collegeAddress, collegeRegNumber, collegeEmailId, collegeDoJ, collegeDateOfPassing);\n        studentsInfo[msg.sender].registrationContracts.push(address(newRegistrationContract));\n        studentsInfo[msg.sender].registrationContractByCollege[collegeAddress] = address(newRegistrationContract);\n        collegesInfo[collegeAddress].registrationContracts.push(address(newRegistrationContract));\n        collegesInfo[collegeAddress].registrationContractByStudent[msg.sender] = address(newRegistrationContract);\n    }\n    \n    function verifyStudentProfile(address studentAddress) public{\n        //address registrationContractAddress = collegesInfo[msg.sender].registrationContractByStudent[studentAddress];\n        RegistrationContract registrationContract = RegistrationContract(collegesInfo[msg.sender].registrationContractByStudent[studentAddress]);\n        registrationContract.verifyStudentProfile();\n    }\n    \n    \n    function approveRegistration(address studentAddress) public\n    {\n        address registrationContractAddress = collegesInfo[msg.sender].registrationContractByStudent[studentAddress];\n        RegistrationContract registrationContract = RegistrationContract(registrationContractAddress);\n        registrationContract.approveRegistration();\n    }\n    \n    function acceptRegistration(address collegeAddress) public\n    {\n        address registrationContractAddress = studentsInfo[msg.sender].registrationContractByCollege[collegeAddress];\n        RegistrationContract registrationContract = RegistrationContract(registrationContractAddress);\n        registrationContract.acceptRegistration();\n    }\n    \n    function getRegistrationStatus(address studentAddress, address collegeAddress) public view returns (string memory) {\n        address registrationContractAddress = studentsInfo[studentAddress].registrationContractByCollege[collegeAddress];\n        RegistrationContract registrationContract = RegistrationContract(registrationContractAddress);\n        return registrationContract.getRegistrationStatus();\n    }\n\n    function getCertificationStatus(address studentAddress, address collegeAddress) public view returns (string memory) {\n        address certificateContractAddress = studentsInfo[studentAddress].certificateContractsByCollege[collegeAddress];\n        CertificateContract certificateContract = CertificateContract(certificateContractAddress);\n        return certificateContract.getCertificationStatus();\n        \n    }\n    \n    function startCertification(address _collegeAddress) public{\n        CertificateContract certContract = new CertificateContract(_collegeAddress);\n        studentsInfo[msg.sender].certificationContracts.push(address(certContract));\n        studentsInfo[msg.sender].certificateContractsByCollege[_collegeAddress] = address(certContract) ;\n    \n        collegesInfo[_collegeAddress].certificationContracts.push(address(certContract));\n        collegesInfo[_collegeAddress].certificateContractsByStudent[msg.sender] = address(certContract);\n    }\n    \n    function reqCertification(address _collegeAddress) public{\n        CertificateContract certContract = CertificateContract(studentsInfo[msg.sender].certificateContractsByCollege[_collegeAddress]);\n        address regContract = studentsInfo[msg.sender].registrationContractByCollege[_collegeAddress];\n        certContract.requestCertification(_collegeAddress,regContract);\n        \n    }\n    function issueCertification(address _studentAddress) public{\n        CertificateContract certContract = CertificateContract(collegesInfo[msg.sender].certificateContractsByStudent[_studentAddress]);\n        certContract.issueCertificate();   \n    }\n\n    function addHash(address _studentAddress,uint _certid, string memory _certContent) public {\n        CertificateContract certContract = CertificateContract(collegesInfo[msg.sender].certificateContractsByStudent[_studentAddress]);\n        certContract.setCertificate(_certid,_certContent);\n    }\n\n\n    function getHash(address studentAddress, address collegeAddress) public view returns (string memory) {\n        address certificateContractAddress = studentsInfo[studentAddress].certificateContractsByCollege[collegeAddress];\n        CertificateContract certificateContract = CertificateContract(certificateContractAddress);\n        return certificateContract.getCertificate();\n        \n    }\n    function acceptCertification(address _collegeAddress) public{\n        CertificateContract certContract = CertificateContract(studentsInfo[msg.sender].certificateContractsByCollege[_collegeAddress]);\n        certContract.acceptCertificate();\n        \n    }\n    function getCertContractAddress(address _collegeAddress) public view returns(address){\n        return studentsInfo[msg.sender].certificateContractsByCollege[_collegeAddress];\n    } \n    \n}\n\ncontract RegistrationContract {\n    address public studentAddress;\n    address public collegeAddress;\n        \n    uint a = 0;\n    struct StudentInfo {\n        string collegeRegNumber;\n        string collegeEmailId;\n        uint collegeDoJ;\n        uint collegeDateOfPassing;\n    }\n        \n    StudentInfo studentInfo;\n         \n    constructor(\n        address _studentAddress, address _collegeAddress, string memory collegeRegNumber, string memory collegeEmailId, uint collegeDoJ, uint collegeDateOfPassing) public{\n        studentAddress = _studentAddress;\n        collegeAddress = _collegeAddress;\n        studentInfo = StudentInfo(collegeRegNumber, collegeEmailId, collegeDoJ, collegeDateOfPassing);\n    }\n        \n        \n    enum Stages {\n        RequestforRegistration,\n        VerifyStudentProfile,\n        ApproveRegistration,\n        AcceptRegistration\n    }\n        \n    Stages public stage = Stages.RequestforRegistration;\n    uint public creationTime = now;\n        \n    modifier atStage(Stages _stage) {\n        require(\n            stage == _stage,\n            \"Error atStage modifier\");\n        _;\n    }\n        //  // This modifier goes to the next stage\n        // // after the function is done.\n    modifier transitionNext(){\n        _;\n        nextStage();\n    }\n    function nextStage() internal {\n        stage = Stages(uint(stage) + 1);\n    }\n        \n      \n    modifier isStudent(address addr) {\n        require(\n            addr == studentAddress,\n            \"Error modifier isStudent\");\n        _;\n    }\n      \n    modifier isCollege(address addr) {\n        require(\n            addr == collegeAddress,\n            \"Error modifier isCollege\");\n        _;\n    }\n        \n    function getRegistrationStatus() public view returns (string memory) {\n        if(Stages.RequestforRegistration == stage){\n            return \"RequestforRegistration\";\n        }\n        if(Stages.VerifyStudentProfile == stage){\n            return \"VerifyStudentProfile\";\n        }\n        if(Stages.ApproveRegistration == stage){\n            return \"ApproveRegistration\";\n        }\n        if(Stages.AcceptRegistration == stage){\n            return \"AcceptRegistration\";\n        }\n    }\n        \n        \n    function verifyStudentProfile() public atStage(Stages.RequestforRegistration) isCollege(tx.origin) transitionNext\n    {\n            \n    }\n        \n    function approveRegistration() public atStage(Stages.VerifyStudentProfile) isCollege(tx.origin) transitionNext\n    {\n            \n    }\n        \n    function acceptRegistration() public atStage(Stages.ApproveRegistration) isStudent(tx.origin) transitionNext\n    {\n            \n    }\n        \n    function getStudentAddress() public view returns(address){\n        return studentAddress;\n    }\n    function getCollegeAddress() public view returns(address){\n        return collegeAddress;\n    }\n    function getStage() public view returns(uint){\n        return uint(stage);\n    }\n        \n}\n\ncontract CertificateContract {\n    \n    uint public test = 0;\n    address public issuerAddress;\n    address public recipientAddress;\n        \n    uint256 public certId;\n    string public certContent;\n\n    enum CertificateStages {\n        AcceptingCertificateRequest,\n        RequestCertificate,\n        IssueCertificate,\n        acceptCertificate\n    }\n\n    CertificateStages public stage = CertificateStages.AcceptingCertificateRequest;\n\n    function setCertificate(uint _certid, string memory _certContent) public {\n        certId = _certid;\n        certContent = _certContent;\n    }\n\n    function getCertificate() public view returns (string memory){\n        return certContent;\n    }\n\n\n    modifier isApproved(address _collegeAddress,address _studentAddress,address _regAddress){\n        RegistrationContract regContract = RegistrationContract(_regAddress);\n        require(_collegeAddress == regContract.getCollegeAddress());\n        require(_studentAddress == regContract.getStudentAddress());\n        require(2 < regContract.getStage());\n        _;\n    }\n    modifier atStage(CertificateStages _stage) {\n        require(stage == _stage);\n        _;\n    }\n    modifier isStudent(address addr) {\n        require(addr == recipientAddress);\n        _;\n    }\n    modifier isCollege(address addr) {\n        require(addr == issuerAddress);\n        _;\n    }\n    modifier transitionNext(){\n        _;\n        nextStage();\n    }\n    function nextStage() internal {\n        stage = CertificateStages(uint(stage) + 1);\n    }\n\n\n    constructor(address _collegeAddress) public{\n        issuerAddress = _collegeAddress;\n        recipientAddress = tx.origin;\n    \n    }\n\n    \n// issue certificate only to registered students in a particular college\n    function issueCertificate() \n    atStage(CertificateStages.RequestCertificate)\n    isCollege(tx.origin)\n    transitionNext\n    public{\n     \n    }\n // can be called by student of partical college\n    function requestCertification(address _collegeAddress,address _regAddress) \n        atStage(CertificateStages.AcceptingCertificateRequest)\n        isApproved(_collegeAddress,tx.origin,_regAddress) \n        transitionNext\n    public{\n     \n    }\n\n// can be accepted by student\n    function acceptCertificate() \n        atStage(CertificateStages.IssueCertificate)\n        isStudent(tx.origin)\n        transitionNext\n        public{\n    \n    }    \n\n    function getCertificationStatus() public view returns (string memory) {\n        if(CertificateStages.AcceptingCertificateRequest == stage){\n            return \"AcceptingCertificateRequest\";\n            }\n        if(CertificateStages.RequestCertificate == stage){\n            return \"RequestCertificate\";\n        }\n        if(CertificateStages.IssueCertificate == stage){\n            return \"IssueCertificate\";\n        }\n        if(CertificateStages.acceptCertificate == stage){\n            return \"acceptCertificate\";\n        }\n    }\n\n    function getStudentAddress() public view returns(address){\n        return recipientAddress;\n    }\n    function getCollegeAddress() public view returns(address){\n        return issuerAddress;\n    }\n\n}",
  "sourcePath": "/Users/mani/Edu/gitRepo/EduPlatform/contracts/RegistrationAndCertificateContractFactory.sol",
  "compiler": {
    "name": "solc",
    "version": "0.5.0+commit.1d4f565a.Emscripten.clang"
  },
  "schemaVersion": "3.0.1",
  "updatedAt": "2019-03-27T06:08:29.578Z",
  "devdoc": {
    "methods": {}
  },
  "userdoc": {
    "methods": {}
  }
}