{
  "contractName": "RegistrationAndCertificateContractFactory",
  "abi": [
    {
      "constant": true,
      "inputs": [
        {
          "name": "_studentAddress",
          "type": "address"
        }
      ],
      "name": "getFirstCollege",
      "outputs": [
        {
          "name": "",
          "type": "address"
        }
      ],
      "payable": false,
      "stateMutability": "view",
      "type": "function",
      "signature": "0x9e5c196c"
    },
    {
      "constant": true,
      "inputs": [],
      "name": "getFirstStudent",
      "outputs": [
        {
          "name": "",
          "type": "address"
        }
      ],
      "payable": false,
      "stateMutability": "view",
      "type": "function",
      "signature": "0xacbe8cee"
    },
    {
      "constant": true,
      "inputs": [],
      "name": "getStudentData",
      "outputs": [
        {
          "name": "",
          "type": "string"
        },
        {
          "name": "",
          "type": "uint256"
        },
        {
          "name": "",
          "type": "string"
        }
      ],
      "payable": false,
      "stateMutability": "view",
      "type": "function",
      "signature": "0x5fd7b16a"
    },
    {
      "constant": false,
      "inputs": [
        {
          "name": "name",
          "type": "string"
        },
        {
          "name": "phoneNumber",
          "type": "uint256"
        },
        {
          "name": "emailId",
          "type": "string"
        }
      ],
      "name": "createStudent",
      "outputs": [],
      "payable": false,
      "stateMutability": "nonpayable",
      "type": "function",
      "signature": "0xc12b577b"
    },
    {
      "constant": false,
      "inputs": [
        {
          "name": "instituteName",
          "type": "string"
        },
        {
          "name": "instituteCode",
          "type": "string"
        },
        {
          "name": "instituteAISHECode",
          "type": "string"
        }
      ],
      "name": "createCollege",
      "outputs": [],
      "payable": false,
      "stateMutability": "nonpayable",
      "type": "function",
      "signature": "0x85870a6f"
    },
    {
      "constant": false,
      "inputs": [
        {
          "name": "collegeAddress",
          "type": "address"
        },
        {
          "name": "collegeRegNumber",
          "type": "string"
        },
        {
          "name": "collegeEmailId",
          "type": "string"
        },
        {
          "name": "collegeDoJ",
          "type": "uint256"
        },
        {
          "name": "collegeDateOfPassing",
          "type": "uint256"
        }
      ],
      "name": "startRegistration",
      "outputs": [],
      "payable": false,
      "stateMutability": "nonpayable",
      "type": "function",
      "signature": "0xb7c2d050"
    },
    {
      "constant": false,
      "inputs": [
        {
          "name": "studentAddress",
          "type": "address"
        }
      ],
      "name": "verifyStudentProfile",
      "outputs": [],
      "payable": false,
      "stateMutability": "nonpayable",
      "type": "function",
      "signature": "0x18014d15"
    },
    {
      "constant": false,
      "inputs": [
        {
          "name": "studentAddress",
          "type": "address"
        }
      ],
      "name": "approveRegistration",
      "outputs": [],
      "payable": false,
      "stateMutability": "nonpayable",
      "type": "function",
      "signature": "0x5179fc49"
    },
    {
      "constant": false,
      "inputs": [
        {
          "name": "collegeAddress",
          "type": "address"
        }
      ],
      "name": "acceptRegistration",
      "outputs": [],
      "payable": false,
      "stateMutability": "nonpayable",
      "type": "function",
      "signature": "0xb204e9f3"
    },
    {
      "constant": true,
      "inputs": [
        {
          "name": "studentAddress",
          "type": "address"
        },
        {
          "name": "collegeAddress",
          "type": "address"
        }
      ],
      "name": "getRegistrationStatus",
      "outputs": [
        {
          "name": "",
          "type": "string"
        }
      ],
      "payable": false,
      "stateMutability": "view",
      "type": "function",
      "signature": "0x95d3113a"
    },
    {
      "constant": true,
      "inputs": [
        {
          "name": "studentAddress",
          "type": "address"
        },
        {
          "name": "collegeAddress",
          "type": "address"
        }
      ],
      "name": "getCertificationStatus",
      "outputs": [
        {
          "name": "",
          "type": "string"
        }
      ],
      "payable": false,
      "stateMutability": "view",
      "type": "function",
      "signature": "0x92f0a140"
    },
    {
      "constant": false,
      "inputs": [
        {
          "name": "_collegeAddress",
          "type": "address"
        }
      ],
      "name": "startCertification",
      "outputs": [],
      "payable": false,
      "stateMutability": "nonpayable",
      "type": "function",
      "signature": "0x79554453"
    },
    {
      "constant": false,
      "inputs": [
        {
          "name": "_collegeAddress",
          "type": "address"
        }
      ],
      "name": "reqCertification",
      "outputs": [],
      "payable": false,
      "stateMutability": "nonpayable",
      "type": "function",
      "signature": "0xb08ab8ea"
    },
    {
      "constant": false,
      "inputs": [
        {
          "name": "_studentAddress",
          "type": "address"
        }
      ],
      "name": "issueCertification",
      "outputs": [],
      "payable": false,
      "stateMutability": "nonpayable",
      "type": "function",
      "signature": "0xa2ddb37c"
    },
    {
      "constant": false,
      "inputs": [
        {
          "name": "_studentAddress",
          "type": "address"
        },
        {
          "name": "_certid",
          "type": "uint256"
        },
        {
          "name": "_certContent",
          "type": "string"
        }
      ],
      "name": "addHash",
      "outputs": [],
      "payable": false,
      "stateMutability": "nonpayable",
      "type": "function",
      "signature": "0x4c787ef0"
    },
    {
      "constant": true,
      "inputs": [
        {
          "name": "studentAddress",
          "type": "address"
        },
        {
          "name": "collegeAddress",
          "type": "address"
        }
      ],
      "name": "getHash",
      "outputs": [
        {
          "name": "",
          "type": "string"
        }
      ],
      "payable": false,
      "stateMutability": "view",
      "type": "function",
      "signature": "0xf8cc1850"
    },
    {
      "constant": false,
      "inputs": [
        {
          "name": "_collegeAddress",
          "type": "address"
        }
      ],
      "name": "acceptCertification",
      "outputs": [],
      "payable": false,
      "stateMutability": "nonpayable",
      "type": "function",
      "signature": "0xcf14ae64"
    },
    {
      "constant": true,
      "inputs": [
        {
          "name": "_collegeAddress",
          "type": "address"
        }
      ],
      "name": "getCertContractAddress",
      "outputs": [
        {
          "name": "",
          "type": "address"
        }
      ],
      "payable": false,
      "stateMutability": "view",
      "type": "function",
      "signature": "0x62efca38"
    }
  ],
  "bytecode": "0x608060405234801561001057600080fd5b506149bd806100206000396000f3fe6080604052600436106200010f576000357c0100000000000000000000000000000000000000000000000000000000900463ffffffff16806318014d1514620001145780634c787ef014620001695780635179fc4914620002625780635fd7b16a14620002b757806362efca3814620003c357806379554453146200045857806385870a6f14620004ad57806392f0a14014620006b057806395d3113a14620007a15780639e5c196c1462000892578063a2ddb37c1462000927578063acbe8cee146200097c578063b08ab8ea14620009d6578063b204e9f31462000a2b578063b7c2d0501462000a80578063c12b577b1462000c1d578063cf14ae641462000d90578063f8cc18501462000de5575b600080fd5b3480156200012157600080fd5b5062000167600480360360208110156200013a57600080fd5b81019080803573ffffffffffffffffffffffffffffffffffffffff16906020019092919050505062000ed6565b005b3480156200017657600080fd5b5062000260600480360360608110156200018f57600080fd5b81019080803573ffffffffffffffffffffffffffffffffffffffff1690602001909291908035906020019092919080359060200190640100000000811115620001d757600080fd5b820183602082011115620001ea57600080fd5b803590602001918460018302840111640100000000831117156200020d57600080fd5b91908080601f016020809104026020016040519081016040528093929190818152602001838380828437600081840152601f19601f82011690508083019250505050505050919291929050505062000ffc565b005b3480156200026f57600080fd5b50620002b5600480360360208110156200028857600080fd5b81019080803573ffffffffffffffffffffffffffffffffffffffff1690602001909291905050506200119f565b005b348015620002c457600080fd5b50620002cf620012cb565b604051808060200184815260200180602001838103835286818151815260200191508051906020019080838360005b838110156200031b578082015181840152602081019050620002fe565b50505050905090810190601f168015620003495780820380516001836020036101000a031916815260200191505b50838103825284818151815260200191508051906020019080838360005b838110156200038457808201518184015260208101905062000367565b50505050905090810190601f168015620003b25780820380516001836020036101000a031916815260200191505b509550505050505060405180910390f35b348015620003d057600080fd5b506200041660048036036020811015620003e957600080fd5b81019080803573ffffffffffffffffffffffffffffffffffffffff169060200190929190505050620014ee565b604051808273ffffffffffffffffffffffffffffffffffffffff1673ffffffffffffffffffffffffffffffffffffffff16815260200191505060405180910390f35b3480156200046557600080fd5b50620004ab600480360360208110156200047e57600080fd5b81019080803573ffffffffffffffffffffffffffffffffffffffff16906020019092919050505062001597565b005b348015620004ba57600080fd5b50620006ae60048036036060811015620004d357600080fd5b8101908080359060200190640100000000811115620004f157600080fd5b8201836020820111156200050457600080fd5b803590602001918460018302840111640100000000831117156200052757600080fd5b91908080601f016020809104026020016040519081016040528093929190818152602001838380828437600081840152601f19601f820116905080830192505050505050509192919290803590602001906401000000008111156200058b57600080fd5b8201836020820111156200059e57600080fd5b80359060200191846001830284011164010000000083111715620005c157600080fd5b91908080601f016020809104026020016040519081016040528093929190818152602001838380828437600081840152601f19601f820116905080830192505050505050509192919290803590602001906401000000008111156200062557600080fd5b8201836020820111156200063857600080fd5b803590602001918460018302840111640100000000831117156200065b57600080fd5b91908080601f016020809104026020016040519081016040528093929190818152602001838380828437600081840152601f19601f820116905080830192505050505050509192919290505050620018c6565b005b348015620006bd57600080fd5b506200072360048036036040811015620006d657600080fd5b81019080803573ffffffffffffffffffffffffffffffffffffffff169060200190929190803573ffffffffffffffffffffffffffffffffffffffff16906020019092919050505062001b0c565b6040518080602001828103825283818151815260200191508051906020019080838360005b838110156200076557808201518184015260208101905062000748565b50505050905090810190601f168015620007935780820380516001836020036101000a031916815260200191505b509250505060405180910390f35b348015620007ae57600080fd5b506200081460048036036040811015620007c757600080fd5b81019080803573ffffffffffffffffffffffffffffffffffffffff169060200190929190803573ffffffffffffffffffffffffffffffffffffffff16906020019092919050505062001cba565b6040518080602001828103825283818151815260200191508051906020019080838360005b838110156200085657808201518184015260208101905062000839565b50505050905090810190601f168015620008845780820380516001836020036101000a031916815260200191505b509250505060405180910390f35b3480156200089f57600080fd5b50620008e560048036036020811015620008b857600080fd5b81019080803573ffffffffffffffffffffffffffffffffffffffff16906020019092919050505062001e68565b604051808273ffffffffffffffffffffffffffffffffffffffff1673ffffffffffffffffffffffffffffffffffffffff16815260200191505060405180910390f35b3480156200093457600080fd5b506200097a600480360360208110156200094d57600080fd5b81019080803573ffffffffffffffffffffffffffffffffffffffff16906020019092919050505062001f11565b005b3480156200098957600080fd5b506200099462002037565b604051808273ffffffffffffffffffffffffffffffffffffffff1673ffffffffffffffffffffffffffffffffffffffff16815260200191505060405180910390f35b348015620009e357600080fd5b5062000a2960048036036020811015620009fc57600080fd5b81019080803573ffffffffffffffffffffffffffffffffffffffff169060200190929190505050620020ba565b005b34801562000a3857600080fd5b5062000a7e6004803603602081101562000a5157600080fd5b81019080803573ffffffffffffffffffffffffffffffffffffffff169060200190929190505050620022f0565b005b34801562000a8d57600080fd5b5062000c1b600480360360a081101562000aa657600080fd5b81019080803573ffffffffffffffffffffffffffffffffffffffff1690602001909291908035906020019064010000000081111562000ae457600080fd5b82018360208201111562000af757600080fd5b8035906020019184600183028401116401000000008311171562000b1a57600080fd5b91908080601f016020809104026020016040519081016040528093929190818152602001838380828437600081840152601f19601f8201169050808301925050505050505091929192908035906020019064010000000081111562000b7e57600080fd5b82018360208201111562000b9157600080fd5b8035906020019184600183028401116401000000008311171562000bb457600080fd5b91908080601f016020809104026020016040519081016040528093929190818152602001838380828437600081840152601f19601f82011690508083019250505050505050919291929080359060200190929190803590602001909291905050506200241c565b005b34801562000c2a57600080fd5b5062000d8e6004803603606081101562000c4357600080fd5b810190808035906020019064010000000081111562000c6157600080fd5b82018360208201111562000c7457600080fd5b8035906020019184600183028401116401000000008311171562000c9757600080fd5b91908080601f016020809104026020016040519081016040528093929190818152602001838380828437600081840152601f19601f820116905080830192505050505050509192919290803590602001909291908035906020019064010000000081111562000d0557600080fd5b82018360208201111562000d1857600080fd5b8035906020019184600183028401116401000000008311171562000d3b57600080fd5b91908080601f016020809104026020016040519081016040528093929190818152602001838380828437600081840152601f19601f8201169050808301925050505050505091929192905050506200287b565b005b34801562000d9d57600080fd5b5062000de36004803603602081101562000db657600080fd5b81019080803573ffffffffffffffffffffffffffffffffffffffff16906020019092919050505062002a99565b005b34801562000df257600080fd5b5062000e586004803603604081101562000e0b57600080fd5b81019080803573ffffffffffffffffffffffffffffffffffffffff169060200190929190803573ffffffffffffffffffffffffffffffffffffffff16906020019092919050505062002bbf565b6040518080602001828103825283818151815260200191508051906020019080838360005b8381101562000e9a57808201518184015260208101905062000e7d565b50505050905090810190601f16801562000ec85780820380516001836020036101000a031916815260200191505b509250505060405180910390f35b6000600360003373ffffffffffffffffffffffffffffffffffffffff1673ffffffffffffffffffffffffffffffffffffffff16815260200190815260200160002060040160008373ffffffffffffffffffffffffffffffffffffffff1673ffffffffffffffffffffffffffffffffffffffff16815260200190815260200160002060009054906101000a900473ffffffffffffffffffffffffffffffffffffffff1690508073ffffffffffffffffffffffffffffffffffffffff1663221486af6040518163ffffffff167c0100000000000000000000000000000000000000000000000000000000028152600401600060405180830381600087803b15801562000fdf57600080fd5b505af115801562000ff4573d6000803e3d6000fd5b505050505050565b6000600360003373ffffffffffffffffffffffffffffffffffffffff1673ffffffffffffffffffffffffffffffffffffffff16815260200190815260200160002060060160008573ffffffffffffffffffffffffffffffffffffffff1673ffffffffffffffffffffffffffffffffffffffff16815260200190815260200160002060009054906101000a900473ffffffffffffffffffffffffffffffffffffffff1690508073ffffffffffffffffffffffffffffffffffffffff1663b06efa9e84846040518363ffffffff167c01000000000000000000000000000000000000000000000000000000000281526004018083815260200180602001828103825283818151815260200191508051906020019080838360005b838110156200113157808201518184015260208101905062001114565b50505050905090810190601f1680156200115f5780820380516001836020036101000a031916815260200191505b509350505050600060405180830381600087803b1580156200118057600080fd5b505af115801562001195573d6000803e3d6000fd5b5050505050505050565b6000600360003373ffffffffffffffffffffffffffffffffffffffff1673ffffffffffffffffffffffffffffffffffffffff16815260200190815260200160002060040160008373ffffffffffffffffffffffffffffffffffffffff1673ffffffffffffffffffffffffffffffffffffffff16815260200190815260200160002060009054906101000a900473ffffffffffffffffffffffffffffffffffffffff16905060008190508073ffffffffffffffffffffffffffffffffffffffff16637d50da176040518163ffffffff167c0100000000000000000000000000000000000000000000000000000000028152600401600060405180830381600087803b158015620012ad57600080fd5b505af1158015620012c2573d6000803e3d6000fd5b50505050505050565b60606000606080600160003373ffffffffffffffffffffffffffffffffffffffff1673ffffffffffffffffffffffffffffffffffffffff1681526020019081526020016000206000018054600181600116156101000203166002900480601f016020809104026020016040519081016040528092919081815260200182805460018160011615610100020316600290048015620013ac5780601f106200138057610100808354040283529160200191620013ac565b820191906000526020600020905b8154815290600101906020018083116200138e57829003601f168201915b505050505090506000600160003373ffffffffffffffffffffffffffffffffffffffff1673ffffffffffffffffffffffffffffffffffffffff1681526020019081526020016000206001015490506060600160003373ffffffffffffffffffffffffffffffffffffffff1673ffffffffffffffffffffffffffffffffffffffff1681526020019081526020016000206002018054600181600116156101000203166002900480601f016020809104026020016040519081016040528092919081815260200182805460018160011615610100020316600290048015620014d65780601f10620014aa57610100808354040283529160200191620014d6565b820191906000526020600020905b815481529060010190602001808311620014b857829003601f168201915b50505050509050828282955095509550505050909192565b6000600160003373ffffffffffffffffffffffffffffffffffffffff1673ffffffffffffffffffffffffffffffffffffffff16815260200190815260200160002060060160008373ffffffffffffffffffffffffffffffffffffffff1673ffffffffffffffffffffffffffffffffffffffff16815260200190815260200160002060009054906101000a900473ffffffffffffffffffffffffffffffffffffffff169050919050565b600081620015a462002d6d565b808273ffffffffffffffffffffffffffffffffffffffff1673ffffffffffffffffffffffffffffffffffffffff168152602001915050604051809103906000f080158015620015f7573d6000803e3d6000fd5b509050600160003373ffffffffffffffffffffffffffffffffffffffff1673ffffffffffffffffffffffffffffffffffffffff1681526020019081526020016000206005018190806001815401808255809150509060018203906000526020600020016000909192909190916101000a81548173ffffffffffffffffffffffffffffffffffffffff021916908373ffffffffffffffffffffffffffffffffffffffff1602179055505080600160003373ffffffffffffffffffffffffffffffffffffffff1673ffffffffffffffffffffffffffffffffffffffff16815260200190815260200160002060060160008473ffffffffffffffffffffffffffffffffffffffff1673ffffffffffffffffffffffffffffffffffffffff16815260200190815260200160002060006101000a81548173ffffffffffffffffffffffffffffffffffffffff021916908373ffffffffffffffffffffffffffffffffffffffff160217905550600360008373ffffffffffffffffffffffffffffffffffffffff1673ffffffffffffffffffffffffffffffffffffffff1681526020019081526020016000206005018190806001815401808255809150509060018203906000526020600020016000909192909190916101000a81548173ffffffffffffffffffffffffffffffffffffffff021916908373ffffffffffffffffffffffffffffffffffffffff1602179055505080600360008473ffffffffffffffffffffffffffffffffffffffff1673ffffffffffffffffffffffffffffffffffffffff16815260200190815260200160002060060160003373ffffffffffffffffffffffffffffffffffffffff1673ffffffffffffffffffffffffffffffffffffffff16815260200190815260200160002060006101000a81548173ffffffffffffffffffffffffffffffffffffffff021916908373ffffffffffffffffffffffffffffffffffffffff1602179055505050565b620018d062002d7e565b60a06040519081016040528085815260200184815260200183815260200160006040519080825280602002602001820160405280156200191f5781602001602082028038833980820191505090505b5081526020016001604051908082528060200260200182016040528015620019565781602001602082028038833980820191505090505b508152509050600281908060018154018082558091505090600182039060005260206000209060070201600090919290919091506000820151816000019080519060200190620019a892919062002dae565b506020820151816001019080519060200190620019c792919062002dae565b506040820151816002019080519060200190620019e692919062002dae565b50606082015181600301908051906020019062001a0592919062002e35565b50608082015181600501908051906020019062001a2492919062002e35565b5050505080600360003373ffffffffffffffffffffffffffffffffffffffff1673ffffffffffffffffffffffffffffffffffffffff168152602001908152602001600020600082015181600001908051906020019062001a8692919062002dae565b50602082015181600101908051906020019062001aa592919062002dae565b50604082015181600201908051906020019062001ac492919062002dae565b50606082015181600301908051906020019062001ae392919062002e35565b50608082015181600501908051906020019062001b0292919062002e35565b5090505050505050565b60606000600160008573ffffffffffffffffffffffffffffffffffffffff1673ffffffffffffffffffffffffffffffffffffffff16815260200190815260200160002060060160008473ffffffffffffffffffffffffffffffffffffffff1673ffffffffffffffffffffffffffffffffffffffff16815260200190815260200160002060009054906101000a900473ffffffffffffffffffffffffffffffffffffffff16905060008190508073ffffffffffffffffffffffffffffffffffffffff16637f70e9756040518163ffffffff167c010000000000000000000000000000000000000000000000000000000002815260040160006040518083038186803b15801562001c1a57600080fd5b505afa15801562001c2f573d6000803e3d6000fd5b505050506040513d6000823e3d601f19601f82011682018060405250602081101562001c5a57600080fd5b81019080805164010000000081111562001c7357600080fd5b8281019050602081018481111562001c8a57600080fd5b815185600182028301116401000000008211171562001ca857600080fd5b50509291905050509250505092915050565b60606000600160008573ffffffffffffffffffffffffffffffffffffffff1673ffffffffffffffffffffffffffffffffffffffff16815260200190815260200160002060040160008473ffffffffffffffffffffffffffffffffffffffff1673ffffffffffffffffffffffffffffffffffffffff16815260200190815260200160002060009054906101000a900473ffffffffffffffffffffffffffffffffffffffff16905060008190508073ffffffffffffffffffffffffffffffffffffffff1663e35fb2416040518163ffffffff167c010000000000000000000000000000000000000000000000000000000002815260040160006040518083038186803b15801562001dc857600080fd5b505afa15801562001ddd573d6000803e3d6000fd5b505050506040513d6000823e3d601f19601f82011682018060405250602081101562001e0857600080fd5b81019080805164010000000081111562001e2157600080fd5b8281019050602081018481111562001e3857600080fd5b815185600182028301116401000000008211171562001e5657600080fd5b50509291905050509250505092915050565b6000600360003373ffffffffffffffffffffffffffffffffffffffff1673ffffffffffffffffffffffffffffffffffffffff16815260200190815260200160002060040160008373ffffffffffffffffffffffffffffffffffffffff1673ffffffffffffffffffffffffffffffffffffffff16815260200190815260200160002060009054906101000a900473ffffffffffffffffffffffffffffffffffffffff169050919050565b6000600360003373ffffffffffffffffffffffffffffffffffffffff1673ffffffffffffffffffffffffffffffffffffffff16815260200190815260200160002060060160008373ffffffffffffffffffffffffffffffffffffffff1673ffffffffffffffffffffffffffffffffffffffff16815260200190815260200160002060009054906101000a900473ffffffffffffffffffffffffffffffffffffffff1690508073ffffffffffffffffffffffffffffffffffffffff1663818169336040518163ffffffff167c0100000000000000000000000000000000000000000000000000000000028152600401600060405180830381600087803b1580156200201a57600080fd5b505af11580156200202f573d6000803e3d6000fd5b505050505050565b6000600160003373ffffffffffffffffffffffffffffffffffffffff1673ffffffffffffffffffffffffffffffffffffffff16815260200190815260200160002060030160008154811015156200208a57fe5b9060005260206000200160009054906101000a900473ffffffffffffffffffffffffffffffffffffffff16905090565b6000600160003373ffffffffffffffffffffffffffffffffffffffff1673ffffffffffffffffffffffffffffffffffffffff16815260200190815260200160002060060160008373ffffffffffffffffffffffffffffffffffffffff1673ffffffffffffffffffffffffffffffffffffffff16815260200190815260200160002060009054906101000a900473ffffffffffffffffffffffffffffffffffffffff1690506000600160003373ffffffffffffffffffffffffffffffffffffffff1673ffffffffffffffffffffffffffffffffffffffff16815260200190815260200160002060040160008473ffffffffffffffffffffffffffffffffffffffff1673ffffffffffffffffffffffffffffffffffffffff16815260200190815260200160002060009054906101000a900473ffffffffffffffffffffffffffffffffffffffff1690508173ffffffffffffffffffffffffffffffffffffffff16633bf6d35c84836040518363ffffffff167c0100000000000000000000000000000000000000000000000000000000028152600401808373ffffffffffffffffffffffffffffffffffffffff1673ffffffffffffffffffffffffffffffffffffffff1681526020018273ffffffffffffffffffffffffffffffffffffffff1673ffffffffffffffffffffffffffffffffffffffff16815260200192505050600060405180830381600087803b158015620022d257600080fd5b505af1158015620022e7573d6000803e3d6000fd5b50505050505050565b6000600160003373ffffffffffffffffffffffffffffffffffffffff1673ffffffffffffffffffffffffffffffffffffffff16815260200190815260200160002060040160008373ffffffffffffffffffffffffffffffffffffffff1673ffffffffffffffffffffffffffffffffffffffff16815260200190815260200160002060009054906101000a900473ffffffffffffffffffffffffffffffffffffffff16905060008190508073ffffffffffffffffffffffffffffffffffffffff166324615e766040518163ffffffff167c0100000000000000000000000000000000000000000000000000000000028152600401600060405180830381600087803b158015620023fe57600080fd5b505af115801562002413573d6000803e3d6000fd5b50505050505050565b338533876000338a8a8a8a8a6200243262002ec4565b808773ffffffffffffffffffffffffffffffffffffffff1673ffffffffffffffffffffffffffffffffffffffff1681526020018673ffffffffffffffffffffffffffffffffffffffff1673ffffffffffffffffffffffffffffffffffffffff1681526020018060200180602001858152602001848152602001838103835287818151815260200191508051906020019080838360005b83811015620024e5578082015181840152602081019050620024c8565b50505050905090810190601f168015620025135780820380516001836020036101000a031916815260200191505b50838103825286818151815260200191508051906020019080838360005b838110156200254e57808201518184015260208101905062002531565b50505050905090810190601f1680156200257c5780820380516001836020036101000a031916815260200191505b5098505050505050505050604051809103906000f080158015620025a4573d6000803e3d6000fd5b509050600160003373ffffffffffffffffffffffffffffffffffffffff1673ffffffffffffffffffffffffffffffffffffffff1681526020019081526020016000206003018190806001815401808255809150509060018203906000526020600020016000909192909190916101000a81548173ffffffffffffffffffffffffffffffffffffffff021916908373ffffffffffffffffffffffffffffffffffffffff1602179055505080600160003373ffffffffffffffffffffffffffffffffffffffff1673ffffffffffffffffffffffffffffffffffffffff16815260200190815260200160002060040160008c73ffffffffffffffffffffffffffffffffffffffff1673ffffffffffffffffffffffffffffffffffffffff16815260200190815260200160002060006101000a81548173ffffffffffffffffffffffffffffffffffffffff021916908373ffffffffffffffffffffffffffffffffffffffff160217905550600360008b73ffffffffffffffffffffffffffffffffffffffff1673ffffffffffffffffffffffffffffffffffffffff1681526020019081526020016000206003018190806001815401808255809150509060018203906000526020600020016000909192909190916101000a81548173ffffffffffffffffffffffffffffffffffffffff021916908373ffffffffffffffffffffffffffffffffffffffff1602179055505080600360008c73ffffffffffffffffffffffffffffffffffffffff1673ffffffffffffffffffffffffffffffffffffffff16815260200190815260200160002060040160003373ffffffffffffffffffffffffffffffffffffffff1673ffffffffffffffffffffffffffffffffffffffff16815260200190815260200160002060006101000a81548173ffffffffffffffffffffffffffffffffffffffff021916908373ffffffffffffffffffffffffffffffffffffffff16021790555050505050505050505050565b336200288662002ed5565b60a0604051908101604052808681526020018581526020018481526020016000604051908082528060200260200182016040528015620028d55781602001602082028038833980820191505090505b50815260200160016040519080825280602002602001820160405280156200290c5781602001602082028038833980820191505090505b5081525090506000819080600181540180825580915050906001820390600052602060002090600702016000909192909190915060008201518160000190805190602001906200295e92919062002dae565b506020820151816001015560408201518160020190805190602001906200298792919062002dae565b506060820151816003019080519060200190620029a692919062002e35565b506080820151816005019080519060200190620029c592919062002e35565b5050505080600160003373ffffffffffffffffffffffffffffffffffffffff1673ffffffffffffffffffffffffffffffffffffffff168152602001908152602001600020600082015181600001908051906020019062002a2792919062002dae565b5060208201518160010155604082015181600201908051906020019062002a5092919062002dae565b50606082015181600301908051906020019062002a6f92919062002e35565b50608082015181600501908051906020019062002a8e92919062002e35565b509050505050505050565b6000600160003373ffffffffffffffffffffffffffffffffffffffff1673ffffffffffffffffffffffffffffffffffffffff16815260200190815260200160002060060160008373ffffffffffffffffffffffffffffffffffffffff1673ffffffffffffffffffffffffffffffffffffffff16815260200190815260200160002060009054906101000a900473ffffffffffffffffffffffffffffffffffffffff1690508073ffffffffffffffffffffffffffffffffffffffff166337feafd46040518163ffffffff167c0100000000000000000000000000000000000000000000000000000000028152600401600060405180830381600087803b15801562002ba257600080fd5b505af115801562002bb7573d6000803e3d6000fd5b505050505050565b60606000600160008573ffffffffffffffffffffffffffffffffffffffff1673ffffffffffffffffffffffffffffffffffffffff16815260200190815260200160002060060160008473ffffffffffffffffffffffffffffffffffffffff1673ffffffffffffffffffffffffffffffffffffffff16815260200190815260200160002060009054906101000a900473ffffffffffffffffffffffffffffffffffffffff16905060008190508073ffffffffffffffffffffffffffffffffffffffff1663ae15eb8e6040518163ffffffff167c010000000000000000000000000000000000000000000000000000000002815260040160006040518083038186803b15801562002ccd57600080fd5b505afa15801562002ce2573d6000803e3d6000fd5b505050506040513d6000823e3d601f19601f82011682018060405250602081101562002d0d57600080fd5b81019080805164010000000081111562002d2657600080fd5b8281019050602081018481111562002d3d57600080fd5b815185600182028301116401000000008211171562002d5b57600080fd5b50509291905050509250505092915050565b604051610d858062002f7483390190565b60a06040519081016040528060608152602001606081526020016060815260200160608152602001606081525090565b828054600181600116156101000203166002900490600052602060002090601f016020900481019282601f1062002df157805160ff191683800117855562002e22565b8280016001018555821562002e22579182015b8281111562002e2157825182559160200191906001019062002e04565b5b50905062002e31919062002f05565b5090565b82805482825590600052602060002090810192821562002eb1579160200282015b8281111562002eb05782518260006101000a81548173ffffffffffffffffffffffffffffffffffffffff021916908373ffffffffffffffffffffffffffffffffffffffff1602179055509160200191906001019062002e56565b5b50905062002ec0919062002f2d565b5090565b604051610c998062003cf983390190565b60a06040519081016040528060608152602001600081526020016060815260200160608152602001606081525090565b62002f2a91905b8082111562002f2657600081600090555060010162002f0c565b5090565b90565b62002f7091905b8082111562002f6c57600081816101000a81549073ffffffffffffffffffffffffffffffffffffffff02191690555060010162002f34565b5090565b9056fe6080604052600080556000600560006101000a81548160ff0219169083600381111561002757fe5b021790555034801561003857600080fd5b50604051602080610d858339810180604052602081101561005857600080fd5b810190808051906020019092919050505080600160006101000a81548173ffffffffffffffffffffffffffffffffffffffff021916908373ffffffffffffffffffffffffffffffffffffffff16021790555032600260006101000a81548173ffffffffffffffffffffffffffffffffffffffff021916908373ffffffffffffffffffffffffffffffffffffffff16021790555050610c8a806100fb6000396000f3fe6080604052600436106100a4576000357c0100000000000000000000000000000000000000000000000000000000900463ffffffff16806337feafd4146100a95780633bf6d35c146100c05780635c910598146101315780637f70e975146101c15780638181693314610251578063ae15eb8e14610268578063b06efa9e146102f8578063c040e6b8146103ca578063de25fc1714610403578063f8a8fd6d1461042e575b600080fd5b3480156100b557600080fd5b506100be610459565b005b3480156100cc57600080fd5b5061012f600480360360408110156100e357600080fd5b81019080803573ffffffffffffffffffffffffffffffffffffffff169060200190929190803573ffffffffffffffffffffffffffffffffffffffff1690602001909291905050506104f7565b005b34801561013d57600080fd5b5061014661079c565b6040518080602001828103825283818151815260200191508051906020019080838360005b8381101561018657808201518184015260208101905061016b565b50505050905090810190601f1680156101b35780820380516001836020036101000a031916815260200191505b509250505060405180910390f35b3480156101cd57600080fd5b506101d661083a565b6040518080602001828103825283818151815260200191508051906020019080838360005b838110156102165780820151818401526020810190506101fb565b50505050905090810190601f1680156102435780820380516001836020036101000a031916815260200191505b509250505060405180910390f35b34801561025d57600080fd5b506102666109eb565b005b34801561027457600080fd5b5061027d610a89565b6040518080602001828103825283818151815260200191508051906020019080838360005b838110156102bd5780820151818401526020810190506102a2565b50505050905090810190601f1680156102ea5780820380516001836020036101000a031916815260200191505b509250505060405180910390f35b34801561030457600080fd5b506103c86004803603604081101561031b57600080fd5b81019080803590602001909291908035906020019064010000000081111561034257600080fd5b82018360208201111561035457600080fd5b8035906020019184600183028401116401000000008311171561037657600080fd5b91908080601f016020809104026020016040519081016040528093929190818152602001838380828437600081840152601f19601f820116905080830192505050505050509192919290505050610b2b565b005b3480156103d657600080fd5b506103df610b4d565b604051808260038111156103ef57fe5b60ff16815260200191505060405180910390f35b34801561040f57600080fd5b50610418610b60565b6040518082815260200191505060405180910390f35b34801561043a57600080fd5b50610443610b66565b6040518082815260200191505060405180910390f35b600280600381111561046757fe5b600560009054906101000a900460ff16600381111561048257fe5b14151561048e57600080fd5b32600260009054906101000a900473ffffffffffffffffffffffffffffffffffffffff1673ffffffffffffffffffffffffffffffffffffffff168173ffffffffffffffffffffffffffffffffffffffff161415156104eb57600080fd5b6104f3610b6c565b5050565b600080600381111561050557fe5b600560009054906101000a900460ff16600381111561052057fe5b14151561052c57600080fd5b82328360008190508073ffffffffffffffffffffffffffffffffffffffff1663bd2f93d06040518163ffffffff167c010000000000000000000000000000000000000000000000000000000002815260040160206040518083038186803b15801561059657600080fd5b505afa1580156105aa573d6000803e3d6000fd5b505050506040513d60208110156105c057600080fd5b810190808051906020019092919050505073ffffffffffffffffffffffffffffffffffffffff168473ffffffffffffffffffffffffffffffffffffffff1614151561060a57600080fd5b8073ffffffffffffffffffffffffffffffffffffffff16633c7328156040518163ffffffff167c010000000000000000000000000000000000000000000000000000000002815260040160206040518083038186803b15801561066c57600080fd5b505afa158015610680573d6000803e3d6000fd5b505050506040513d602081101561069657600080fd5b810190808051906020019092919050505073ffffffffffffffffffffffffffffffffffffffff168373ffffffffffffffffffffffffffffffffffffffff161415156106e057600080fd5b8073ffffffffffffffffffffffffffffffffffffffff1663fcaa76646040518163ffffffff167c010000000000000000000000000000000000000000000000000000000002815260040160206040518083038186803b15801561074257600080fd5b505afa158015610756573d6000803e3d6000fd5b505050506040513d602081101561076c57600080fd5b8101908080519060200190929190505050600210151561078b57600080fd5b610793610b6c565b50505050505050565b60048054600181600116156101000203166002900480601f0160208091040260200160405190810160405280929190818152602001828054600181600116156101000203166002900480156108325780601f1061080757610100808354040283529160200191610832565b820191906000526020600020905b81548152906001019060200180831161081557829003601f168201915b505050505081565b6060600560009054906101000a900460ff16600381111561085757fe5b6000600381111561086457fe5b14156108a7576040805190810160405280601b81526020017f416363657074696e67436572746966696361746552657175657374000000000081525090506109e8565b600560009054906101000a900460ff1660038111156108c257fe5b600160038111156108cf57fe5b1415610912576040805190810160405280601281526020017f526571756573744365727469666963617465000000000000000000000000000081525090506109e8565b600560009054906101000a900460ff16600381111561092d57fe5b6002600381111561093a57fe5b141561097d576040805190810160405280601081526020017f497373756543657274696669636174650000000000000000000000000000000081525090506109e8565b600560009054906101000a900460ff16600381111561099857fe5b6003808111156109a457fe5b14156109e7576040805190810160405280601181526020017f616363657074436572746966696361746500000000000000000000000000000081525090506109e8565b5b90565b60018060038111156109f957fe5b600560009054906101000a900460ff166003811115610a1457fe5b141515610a2057600080fd5b32600160009054906101000a900473ffffffffffffffffffffffffffffffffffffffff1673ffffffffffffffffffffffffffffffffffffffff168173ffffffffffffffffffffffffffffffffffffffff16141515610a7d57600080fd5b610a85610b6c565b5050565b606060048054600181600116156101000203166002900480601f016020809104026020016040519081016040528092919081815260200182805460018160011615610100020316600290048015610b215780601f10610af657610100808354040283529160200191610b21565b820191906000526020600020905b815481529060010190602001808311610b0457829003601f168201915b5050505050905090565b816003819055508060049080519060200190610b48929190610bb9565b505050565b600560009054906101000a900460ff1681565b60035481565b60005481565b6001600560009054906101000a900460ff166003811115610b8957fe5b016003811115610b9557fe5b600560006101000a81548160ff02191690836003811115610bb257fe5b0217905550565b828054600181600116156101000203166002900490600052602060002090601f016020900481019282601f10610bfa57805160ff1916838001178555610c28565b82800160010185558215610c28579182015b82811115610c27578251825591602001919060010190610c0c565b5b509050610c359190610c39565b5090565b610c5b91905b80821115610c57576000816000905550600101610c3f565b5090565b9056fea165627a7a723058204a78cfec5c75a1b17b69c2f968d30f8b7ef31c54798c4f1b55e5e578abd5323c0029608060405260006002556000600760006101000a81548160ff0219169083600381111561002857fe5b02179055504260085534801561003d57600080fd5b50604051610c99380380610c99833981018060405260c081101561006057600080fd5b810190808051906020019092919080519060200190929190805164010000000081111561008c57600080fd5b828101905060208101848111156100a257600080fd5b81518560018202830111640100000000821117156100bf57600080fd5b505092919060200180516401000000008111156100db57600080fd5b828101905060208101848111156100f157600080fd5b815185600182028301116401000000008211171561010e57600080fd5b50509291906020018051906020019092919080519060200190929190505050856000806101000a81548173ffffffffffffffffffffffffffffffffffffffff021916908373ffffffffffffffffffffffffffffffffffffffff16021790555084600160006101000a81548173ffffffffffffffffffffffffffffffffffffffff021916908373ffffffffffffffffffffffffffffffffffffffff16021790555060806040519081016040528085815260200184815260200183815260200182815250600360008201518160000190805190602001906101ee92919061022e565b50602082015181600101908051906020019061020b92919061022e565b5060408201518160020155606082015181600301559050505050505050506102d3565b828054600181600116156101000203166002900490600052602060002090601f016020900481019282601f1061026f57805160ff191683800117855561029d565b8280016001018555821561029d579182015b8281111561029c578251825591602001919060010190610281565b5b5090506102aa91906102ae565b5090565b6102d091905b808211156102cc5760008160009055506001016102b4565b5090565b90565b6109b7806102e26000396000f3fe608060405260043610610099576000357c0100000000000000000000000000000000000000000000000000000000900463ffffffff168063221486af1461009e57806324615e76146100b55780633c732815146100cc5780637d50da1714610123578063bd2f93d01461013a578063c040e6b814610191578063d8270dce146101ca578063e35fb241146101f5578063fcaa766414610285575b600080fd5b3480156100aa57600080fd5b506100b36102b0565b005b3480156100c157600080fd5b506100ca610420565b005b3480156100d857600080fd5b506100e161058f565b604051808273ffffffffffffffffffffffffffffffffffffffff1673ffffffffffffffffffffffffffffffffffffffff16815260200191505060405180910390f35b34801561012f57600080fd5b506101386105b8565b005b34801561014657600080fd5b5061014f610728565b604051808273ffffffffffffffffffffffffffffffffffffffff1673ffffffffffffffffffffffffffffffffffffffff16815260200191505060405180910390f35b34801561019d57600080fd5b506101a6610752565b604051808260038111156101b657fe5b60ff16815260200191505060405180910390f35b3480156101d657600080fd5b506101df610765565b6040518082815260200191505060405180910390f35b34801561020157600080fd5b5061020a61076b565b6040518080602001828103825283818151815260200191508051906020019080838360005b8381101561024a57808201518184015260208101905061022f565b50505050905090810190601f1680156102775780820380516001836020036101000a031916815260200191505b509250505060405180910390f35b34801561029157600080fd5b5061029a61091c565b6040518082815260200191505060405180910390f35b60008060038111156102be57fe5b600760009054906101000a900460ff1660038111156102d957fe5b14151561034e576040517f08c379a00000000000000000000000000000000000000000000000000000000081526004018080602001828103825260168152602001807f4572726f722061745374616765206d6f6469666965720000000000000000000081525060200191505060405180910390fd5b32600160009054906101000a900473ffffffffffffffffffffffffffffffffffffffff1673ffffffffffffffffffffffffffffffffffffffff168173ffffffffffffffffffffffffffffffffffffffff16141515610414576040517f08c379a00000000000000000000000000000000000000000000000000000000081526004018080602001828103825260188152602001807f4572726f72206d6f646966696572206973436f6c6c656765000000000000000081525060200191505060405180910390fd5b61041c61093e565b5050565b600280600381111561042e57fe5b600760009054906101000a900460ff16600381111561044957fe5b1415156104be576040517f08c379a00000000000000000000000000000000000000000000000000000000081526004018080602001828103825260168152602001807f4572726f722061745374616765206d6f6469666965720000000000000000000081525060200191505060405180910390fd5b326000809054906101000a900473ffffffffffffffffffffffffffffffffffffffff1673ffffffffffffffffffffffffffffffffffffffff168173ffffffffffffffffffffffffffffffffffffffff16141515610583576040517f08c379a00000000000000000000000000000000000000000000000000000000081526004018080602001828103825260188152602001807f4572726f72206d6f64696669657220697353747564656e74000000000000000081525060200191505060405180910390fd5b61058b61093e565b5050565b60008060009054906101000a900473ffffffffffffffffffffffffffffffffffffffff16905090565b60018060038111156105c657fe5b600760009054906101000a900460ff1660038111156105e157fe5b141515610656576040517f08c379a00000000000000000000000000000000000000000000000000000000081526004018080602001828103825260168152602001807f4572726f722061745374616765206d6f6469666965720000000000000000000081525060200191505060405180910390fd5b32600160009054906101000a900473ffffffffffffffffffffffffffffffffffffffff1673ffffffffffffffffffffffffffffffffffffffff168173ffffffffffffffffffffffffffffffffffffffff1614151561071c576040517f08c379a00000000000000000000000000000000000000000000000000000000081526004018080602001828103825260188152602001807f4572726f72206d6f646966696572206973436f6c6c656765000000000000000081525060200191505060405180910390fd5b61072461093e565b5050565b6000600160009054906101000a900473ffffffffffffffffffffffffffffffffffffffff16905090565b600760009054906101000a900460ff1681565b60085481565b6060600760009054906101000a900460ff16600381111561078857fe5b6000600381111561079557fe5b14156107d8576040805190810160405280601681526020017f52657175657374666f72526567697374726174696f6e000000000000000000008152509050610919565b600760009054906101000a900460ff1660038111156107f357fe5b6001600381111561080057fe5b1415610843576040805190810160405280601481526020017f56657269667953747564656e7450726f66696c650000000000000000000000008152509050610919565b600760009054906101000a900460ff16600381111561085e57fe5b6002600381111561086b57fe5b14156108ae576040805190810160405280601381526020017f417070726f7665526567697374726174696f6e000000000000000000000000008152509050610919565b600760009054906101000a900460ff1660038111156108c957fe5b6003808111156108d557fe5b1415610918576040805190810160405280601281526020017f416363657074526567697374726174696f6e00000000000000000000000000008152509050610919565b5b90565b6000600760009054906101000a900460ff16600381111561093957fe5b905090565b6001600760009054906101000a900460ff16600381111561095b57fe5b01600381111561096757fe5b600760006101000a81548160ff0219169083600381111561098457fe5b021790555056fea165627a7a72305820893b0c82fd5a3ce358549082ae7ad200dcb30f7a019a5438db712f37f9b9a2970029a165627a7a723058202994cf82ca7c84ae009e09b0d814e5fef114f4b258a3aad7819d8075a1c28b120029",
  "source": "pragma solidity ^0.5.0;\n\ncontract RegistrationAndCertificateContractFactory {\n\n    struct Student {\n        string fullName;\n        uint phoneNumber;\n        string emailId;\n        address[] registrationContracts;\n        mapping(address => address) registrationContractByCollege;\n        address[] certificationContracts;\n        mapping(address=>address) certificateContractsByCollege;\n    }\n    \n    struct College {\n        string instituteName;\n        string instituteCode;\n        string instituteAISHECode;\n        address[] registrationContracts;\n        mapping(address => address) registrationContractByStudent;\n        address[] certificationContracts;\n        mapping(address=>address) certificateContractsByStudent;\n    }\n    \n    Student[]  studentList;\n    mapping(address => Student) studentsInfo;\n    \n    College[]  collegeList;\n    mapping(address => College) collegesInfo;\n    \n    function getFirstCollege(address _studentAddress) public view returns(address){\n        return collegesInfo[msg.sender].registrationContractByStudent[_studentAddress];\n    }\n    function getFirstStudent() public view returns(address){\n        return studentsInfo[msg.sender].registrationContracts[0];\n    }\n\n    function getStudentData() public view returns(string memory,uint,string memory){\n        string memory _name = studentsInfo[msg.sender].fullName;\n        uint _phoneNumber = studentsInfo[msg.sender].phoneNumber;\n        string memory _emailId = studentsInfo[msg.sender].emailId;  \n        return(_name,_phoneNumber,_emailId);\n    }\n\n    /*function getRegisteredStudentData(address _studentAddress) public view returns(string memory,string memory,uint,uint){\n        \n    }  */\n\n   /* function regCollegeList() public view returns(College[] memory){\n        return(collegeList);\n    } */\n    \n    function createStudent( string memory name, uint phoneNumber,  string memory emailId) public doesStudentExist(msg.sender){\n        Student memory newStudent = Student(name, phoneNumber,emailId, new address[](0),  new address[](1) );\n        studentList.push(newStudent);\n        studentsInfo[msg.sender] = newStudent;\n    }\n    \n    \n    function createCollege(string memory instituteName, string memory instituteCode, string memory instituteAISHECode) public {\n        College memory newCollege = College(instituteName, instituteCode, instituteAISHECode, new address[](0),  new address[](1));\n        collegeList.push(newCollege);\n        collegesInfo[msg.sender] = newCollege;\n    }\n    \n    modifier doesStudentExist(address studentAddress) {\n        // check if studentAddress is present in studentList or not.\n        _;\n    }\n    \n    modifier doesCollegeExist(address collegeAddress) {\n        // check if collegeAddress is present in collegeList or not\n        _;\n    }\n    \n    modifier notAlreadyRegistered(address studentAddress, address collegeAddress) {\n        // check if collegeStudentRegistrationContracts[collegeAddress][studentAddress] is empty or notAlreadyRegistered\n        _;\n    }\n    \n    function startRegistration(\n        address collegeAddress, string memory collegeRegNumber, string memory collegeEmailId, uint collegeDoJ, uint collegeDateOfPassing) doesStudentExist(msg.sender) doesCollegeExist(collegeAddress) notAlreadyRegistered(msg.sender, collegeAddress) public{\n        RegistrationContract newRegistrationContract = new \n        RegistrationContract(msg.sender, collegeAddress, collegeRegNumber, collegeEmailId, collegeDoJ, collegeDateOfPassing);\n        studentsInfo[msg.sender].registrationContracts.push(address(newRegistrationContract));\n        studentsInfo[msg.sender].registrationContractByCollege[collegeAddress] = address(newRegistrationContract);\n        collegesInfo[collegeAddress].registrationContracts.push(address(newRegistrationContract));\n        collegesInfo[collegeAddress].registrationContractByStudent[msg.sender] = address(newRegistrationContract);\n    }\n    \n    function verifyStudentProfile(address studentAddress) public{\n        //address registrationContractAddress = collegesInfo[msg.sender].registrationContractByStudent[studentAddress];\n        RegistrationContract registrationContract = RegistrationContract(collegesInfo[msg.sender].registrationContractByStudent[studentAddress]);\n        registrationContract.verifyStudentProfile();\n    }\n    \n    \n    function approveRegistration(address studentAddress) public\n    {\n        address registrationContractAddress = collegesInfo[msg.sender].registrationContractByStudent[studentAddress];\n        RegistrationContract registrationContract = RegistrationContract(registrationContractAddress);\n        registrationContract.approveRegistration();\n    }\n    \n    function acceptRegistration(address collegeAddress) public\n    {\n        address registrationContractAddress = studentsInfo[msg.sender].registrationContractByCollege[collegeAddress];\n        RegistrationContract registrationContract = RegistrationContract(registrationContractAddress);\n        registrationContract.acceptRegistration();\n    }\n    \n    function getRegistrationStatus(address studentAddress, address collegeAddress) public view returns (string memory) {\n        address registrationContractAddress = studentsInfo[studentAddress].registrationContractByCollege[collegeAddress];\n        RegistrationContract registrationContract = RegistrationContract(registrationContractAddress);\n        return registrationContract.getRegistrationStatus();\n    }\n\n    function getCertificationStatus(address studentAddress, address collegeAddress) public view returns (string memory) {\n        address certificateContractAddress = studentsInfo[studentAddress].certificateContractsByCollege[collegeAddress];\n        CertificateContract certificateContract = CertificateContract(certificateContractAddress);\n        return certificateContract.getCertificationStatus();\n        \n    }\n    \n    function startCertification(address _collegeAddress) public{\n        CertificateContract certContract = new CertificateContract(_collegeAddress);\n        studentsInfo[msg.sender].certificationContracts.push(address(certContract));\n        studentsInfo[msg.sender].certificateContractsByCollege[_collegeAddress] = address(certContract) ;\n    \n        collegesInfo[_collegeAddress].certificationContracts.push(address(certContract));\n        collegesInfo[_collegeAddress].certificateContractsByStudent[msg.sender] = address(certContract);\n    }\n    \n    function reqCertification(address _collegeAddress) public{\n        CertificateContract certContract = CertificateContract(studentsInfo[msg.sender].certificateContractsByCollege[_collegeAddress]);\n        address regContract = studentsInfo[msg.sender].registrationContractByCollege[_collegeAddress];\n        certContract.requestCertification(_collegeAddress,regContract);\n        \n    }\n    function issueCertification(address _studentAddress) public{\n        CertificateContract certContract = CertificateContract(collegesInfo[msg.sender].certificateContractsByStudent[_studentAddress]);\n        certContract.issueCertificate();   \n    }\n\n    function addHash(address _studentAddress,uint _certid, string memory _certContent) public {\n        CertificateContract certContract = CertificateContract(collegesInfo[msg.sender].certificateContractsByStudent[_studentAddress]);\n        certContract.setCertificate(_certid,_certContent);\n    }\n\n\n    function getHash(address studentAddress, address collegeAddress) public view returns (string memory) {\n        address certificateContractAddress = studentsInfo[studentAddress].certificateContractsByCollege[collegeAddress];\n        CertificateContract certificateContract = CertificateContract(certificateContractAddress);\n        return certificateContract.getCertificate();\n        \n    }\n    function acceptCertification(address _collegeAddress) public{\n        CertificateContract certContract = CertificateContract(studentsInfo[msg.sender].certificateContractsByCollege[_collegeAddress]);\n        certContract.acceptCertificate();\n        \n    }\n    function getCertContractAddress(address _collegeAddress) public view returns(address){\n        return studentsInfo[msg.sender].certificateContractsByCollege[_collegeAddress];\n    } \n    \n}\n\ncontract RegistrationContract {\n    address studentAddress;\n    address collegeAddress;\n        \n    uint a = 0;\n    struct StudentInfo {\n        string collegeRegNumber;\n        string collegeEmailId;\n        uint collegeDoJ;\n        uint collegeDateOfPassing;\n    }\n        \n    StudentInfo studentInfo;\n         \n    constructor(\n        address _studentAddress, address _collegeAddress, string memory collegeRegNumber, string memory collegeEmailId, uint collegeDoJ, uint collegeDateOfPassing) public{\n        studentAddress = _studentAddress;\n        collegeAddress = _collegeAddress;\n        studentInfo = StudentInfo(collegeRegNumber, collegeEmailId, collegeDoJ, collegeDateOfPassing);\n    }\n        \n        \n    enum Stages {\n        RequestforRegistration,\n        VerifyStudentProfile,\n        ApproveRegistration,\n        AcceptRegistration\n    }\n        \n    Stages public stage = Stages.RequestforRegistration;\n    uint public creationTime = now;\n        \n    modifier atStage(Stages _stage) {\n        require(\n            stage == _stage,\n            \"Error atStage modifier\");\n        _;\n    }\n        //  // This modifier goes to the next stage\n        // // after the function is done.\n    modifier transitionNext(){\n        _;\n        nextStage();\n    }\n    function nextStage() internal {\n        stage = Stages(uint(stage) + 1);\n    }\n        \n      \n    modifier isStudent(address addr) {\n        require(\n            addr == studentAddress,\n            \"Error modifier isStudent\");\n        _;\n    }\n      \n    modifier isCollege(address addr) {\n        require(\n            addr == collegeAddress,\n            \"Error modifier isCollege\");\n        _;\n    }\n        \n    function getRegistrationStatus() public view returns (string memory) {\n        if(Stages.RequestforRegistration == stage){\n            return \"RequestforRegistration\";\n        }\n        if(Stages.VerifyStudentProfile == stage){\n            return \"VerifyStudentProfile\";\n        }\n        if(Stages.ApproveRegistration == stage){\n            return \"ApproveRegistration\";\n        }\n        if(Stages.AcceptRegistration == stage){\n            return \"AcceptRegistration\";\n        }\n    }\n        \n        \n    function verifyStudentProfile() public atStage(Stages.RequestforRegistration) isCollege(tx.origin) transitionNext\n    {\n            \n    }\n        \n    function approveRegistration() public atStage(Stages.VerifyStudentProfile) isCollege(tx.origin) transitionNext\n    {\n            \n    }\n        \n    function acceptRegistration() public atStage(Stages.ApproveRegistration) isStudent(tx.origin) transitionNext\n    {\n            \n    }\n        \n    function getStudentAddress() public view returns(address){\n        return studentAddress;\n    }\n    function getCollegeAddress() public view returns(address){\n        return collegeAddress;\n    }\n    function getStage() public view returns(uint){\n        return uint(stage);\n    }\n        \n}\n\ncontract CertificateContract {\n    \n    uint public test = 0;\n    address issuerAddress;\n    address recipientAddress;\n        \n    uint256 public certId;\n    string public certContent;\n\n    enum CertificateStages {\n        AcceptingCertificateRequest,\n        RequestCertificate,\n        IssueCertificate,\n        acceptCertificate\n    }\n\n    CertificateStages public stage = CertificateStages.AcceptingCertificateRequest;\n\n    function setCertificate(uint _certid, string memory _certContent) public {\n        certId = _certid;\n        certContent = _certContent;\n    }\n\n    function getCertificate() public view returns (string memory){\n        return certContent;\n    }\n\n\n    modifier isApproved(address _collegeAddress,address _studentAddress,address _regAddress){\n        RegistrationContract regContract = RegistrationContract(_regAddress);\n        require(_collegeAddress == regContract.getCollegeAddress());\n        require(_studentAddress == regContract.getStudentAddress());\n        require(2 < regContract.getStage());\n        _;\n    }\n    modifier atStage(CertificateStages _stage) {\n        require(stage == _stage);\n        _;\n    }\n    modifier isStudent(address addr) {\n        require(addr == recipientAddress);\n        _;\n    }\n    modifier isCollege(address addr) {\n        require(addr == issuerAddress);\n        _;\n    }\n    modifier transitionNext(){\n        _;\n        nextStage();\n    }\n    function nextStage() internal {\n        stage = CertificateStages(uint(stage) + 1);\n    }\n\n\n    constructor(address _collegeAddress) public{\n        issuerAddress = _collegeAddress;\n        recipientAddress = tx.origin;\n    \n    }\n\n    \n// issue certificate only to registered students in a particular college\n    function issueCertificate() \n    atStage(CertificateStages.RequestCertificate)\n    isCollege(tx.origin)\n    transitionNext\n    public{\n     \n    }\n // can be called by student of partical college\n    function requestCertification(address _collegeAddress,address _regAddress) \n        atStage(CertificateStages.AcceptingCertificateRequest)\n        isApproved(_collegeAddress,tx.origin,_regAddress) \n        transitionNext\n    public{\n     \n    }\n\n// can be accepted by student\n    function acceptCertificate() \n        atStage(CertificateStages.IssueCertificate)\n        isStudent(tx.origin)\n        transitionNext\n        public{\n    \n    }    \n\n    function getCertificationStatus() public view returns (string memory) {\n        if(CertificateStages.AcceptingCertificateRequest == stage){\n            return \"AcceptingCertificateRequest\";\n            }\n        if(CertificateStages.RequestCertificate == stage){\n            return \"RequestCertificate\";\n        }\n        if(CertificateStages.IssueCertificate == stage){\n            return \"IssueCertificate\";\n        }\n        if(CertificateStages.acceptCertificate == stage){\n            return \"acceptCertificate\";\n        }\n    }\n\n}",
  "sourcePath": "/Users/mani/Edu/gitRepo/EduPlatform/contracts/RegistrationAndCertificateContractFactory.sol",
  "compiler": {
    "name": "solc",
    "version": "0.5.0+commit.1d4f565a.Emscripten.clang"
  },
  "schemaVersion": "3.0.1",
  "updatedAt": "2019-03-22T15:35:29.814Z",
  "devdoc": {
    "methods": {}
  },
  "userdoc": {
    "methods": {}
  }
}