{
  "contractName": "SimpleStorage",
  "abi": [
    {
      "constant": false,
      "inputs": [
        {
          "name": "_name",
          "type": "string"
        },
        {
          "name": "_phone",
          "type": "uint256"
        }
      ],
      "name": "createS",
      "outputs": [],
      "payable": false,
      "stateMutability": "nonpayable",
      "type": "function",
      "signature": "0x8b7be0a8"
    },
    {
      "constant": true,
      "inputs": [],
      "name": "getS",
      "outputs": [
        {
          "name": "",
          "type": "string"
        },
        {
          "name": "",
          "type": "uint256"
        }
      ],
      "payable": false,
      "stateMutability": "view",
      "type": "function",
      "signature": "0xe93314ab"
    },
    {
      "constant": false,
      "inputs": [
        {
          "name": "_name",
          "type": "string"
        },
        {
          "name": "x",
          "type": "uint256"
        }
      ],
      "name": "set",
      "outputs": [],
      "payable": false,
      "stateMutability": "nonpayable",
      "type": "function",
      "signature": "0x8a42ebe9"
    },
    {
      "constant": true,
      "inputs": [],
      "name": "get",
      "outputs": [
        {
          "name": "",
          "type": "string"
        },
        {
          "name": "",
          "type": "uint256"
        }
      ],
      "payable": false,
      "stateMutability": "view",
      "type": "function",
      "signature": "0x6d4ce63c"
    }
  ],
  "bytecode": "0x608060405234801561001057600080fd5b50610786806100206000396000f3fe608060405260043610610062576000357c0100000000000000000000000000000000000000000000000000000000900463ffffffff1680636d4ce63c146100675780638a42ebe9146100fe5780638b7be0a8146101d0578063e93314ab146102a2575b600080fd5b34801561007357600080fd5b5061007c610339565b6040518080602001838152602001828103825284818151815260200191508051906020019080838360005b838110156100c25780820151818401526020810190506100a7565b50505050905090810190601f1680156100ef5780820380516001836020036101000a031916815260200191505b50935050505060405180910390f35b34801561010a57600080fd5b506101ce6004803603604081101561012157600080fd5b810190808035906020019064010000000081111561013e57600080fd5b82018360208201111561015057600080fd5b8035906020019184600183028401116401000000008311171561017257600080fd5b91908080601f016020809104026020016040519081016040528093929190818152602001838380828437600081840152601f19601f820116905080830192505050505050509192919290803590602001909291905050506103e6565b005b3480156101dc57600080fd5b506102a0600480360360408110156101f357600080fd5b810190808035906020019064010000000081111561021057600080fd5b82018360208201111561022257600080fd5b8035906020019184600183028401116401000000008311171561024457600080fd5b91908080601f016020809104026020016040519081016040528093929190818152602001838380828437600081840152601f19601f82011690508083019250505050505050919291929080359060200190929190505050610408565b005b3480156102ae57600080fd5b506102b76104ee565b6040518080602001838152602001828103825284818151815260200191508051906020019080838360005b838110156102fd5780820151818401526020810190506102e2565b50505050905090810190601f16801561032a5780820380516001836020036101000a031916815260200191505b50935050505060405180910390f35b606060006001600054818054600181600116156101000203166002900480601f0160208091040260200160405190810160405280929190818152602001828054600181600116156101000203166002900480156103d75780601f106103ac576101008083540402835291602001916103d7565b820191906000526020600020905b8154815290600101906020018083116103ba57829003601f168201915b50505050509150915091509091565b80600081905550816001908051906020019061040392919061061b565b505050565b61041061069b565b60408051908101604052808481526020018381525090506002819080600181540180825580915050906001820390600052602060002090600202016000909192909190915060008201518160000190805190602001906104719291906106b5565b506020820151816001015550505080600360003373ffffffffffffffffffffffffffffffffffffffff1673ffffffffffffffffffffffffffffffffffffffff16815260200190815260200160002060008201518160000190805190602001906104db9291906106b5565b5060208201518160010155905050505050565b60606000600360003373ffffffffffffffffffffffffffffffffffffffff1673ffffffffffffffffffffffffffffffffffffffff168152602001908152602001600020600001600360003373ffffffffffffffffffffffffffffffffffffffff1673ffffffffffffffffffffffffffffffffffffffff16815260200190815260200160002060010154818054600181600116156101000203166002900480601f01602080910402602001604051908101604052809291908181526020018280546001816001161561010002031660029004801561060c5780601f106105e15761010080835404028352916020019161060c565b820191906000526020600020905b8154815290600101906020018083116105ef57829003601f168201915b50505050509150915091509091565b828054600181600116156101000203166002900490600052602060002090601f016020900481019282601f1061065c57805160ff191683800117855561068a565b8280016001018555821561068a579182015b8281111561068957825182559160200191906001019061066e565b5b5090506106979190610735565b5090565b604080519081016040528060608152602001600081525090565b828054600181600116156101000203166002900490600052602060002090601f016020900481019282601f106106f657805160ff1916838001178555610724565b82800160010185558215610724579182015b82811115610723578251825591602001919060010190610708565b5b5090506107319190610735565b5090565b61075791905b8082111561075357600081600090555060010161073b565b5090565b9056fea165627a7a72305820b515cd974a5ae28d8aa16b7c01c4555a7727f77deaf024ee8ff8781c9ee69e220029",
  "source": "pragma solidity ^0.5.0;\n\ncontract SimpleStorage {\n    uint storedData;\n    string name;\n\n    struct Student {\n        string nme;\n        uint phone;    \n    }\n    Student[] studentList;\n    mapping(address => Student) studentsInfo;\n\n    function createS(string memory _name, uint _phone) public {\n        Student memory newStudent = Student(_name,_phone);\n        studentList.push(newStudent);\n        studentsInfo[msg.sender] = newStudent;\n    }\n\n    function getS() public view returns(string memory,uint) {\n        return(studentsInfo[msg.sender].nme,studentsInfo[msg.sender].phone);\n    \n    }\n\n    function set(string memory _name, uint x) public {\n        storedData = x;\n        name = _name;\n\n    }\n\n    function get() public view returns (string memory,uint) {\n        return (name,storedData);\n    }\n}\n",
  "sourcePath": "/Users/mani/Edu/Demo/EduPlatform/contracts/SimpleStorage.sol",
  "compiler": {
    "name": "solc",
    "version": "0.5.0+commit.1d4f565a.Emscripten.clang"
  },
  "schemaVersion": "3.0.1",
  "updatedAt": "2019-04-08T10:04:25.283Z",
  "devdoc": {
    "methods": {}
  },
  "userdoc": {
    "methods": {}
  }
}